{
  "transactions": [
    {
      "hash": "0xc8d5982e278624601f15bac219a3df247a382b12b4b2c97f06daecbb746a00d0",
      "transactionType": "CALL",
      "contractName": null,
      "contractAddress": "0x78c48a7d7fc69735fdab448fe6068bba44a920e6",
      "function": "approve(address,uint256)",
      "arguments": [
        "0x5208f5dE46c25273E2Fb8d5a73d605997BC4CA3F",
        "115792089237316195423570985008687907853269984665640564039457584007913129639935"
      ],
      "transaction": {
        "from": "0x3676b6ed4ae0c9ce3e0034510719fdf5fd585d55",
        "to": "0x78c48a7d7fc69735fdab448fe6068bba44a920e6",
        "gas": "0x8a00",
        "value": "0x0",
        "input": "0x095ea7b30000000000000000000000005208f5de46c25273e2fb8d5a73d605997bc4ca3fffffffffffffffffffffffffffffffffffffffffffffffffffffffffffffffff",
        "nonce": "0xe",
        "chainId": "0x66eee"
      },
      "additionalContracts": [],
      "isFixedGasLimit": false
    }
  ],
  "receipts": [
    {
      "status": "0x1",
      "cumulativeGasUsed": "0x68bb",
      "logs": [
        {
          "address": "0x78c48a7d7fc69735fdab448fe6068bba44a920e6",
          "topics": [
            "0x8c5be1e5ebec7d5bd14f71427d1e84f3dd0314c0f7b2291e5b200ac8c7c3b925",
            "0x0000000000000000000000003676b6ed4ae0c9ce3e0034510719fdf5fd585d55",
            "0x0000000000000000000000005208f5de46c25273e2fb8d5a73d605997bc4ca3f"
          ],
          "data": "0xffffffffffffffffffffffffffffffffffffffffffffffffffffffffffffffff",
          "blockHash": "0xa3637906c86ec1e5b1f455319dfa903ae8a20fa2697d79c82c9d96c85dbc22da",
          "blockNumber": "0x3213050",
          "transactionHash": "0xc8d5982e278624601f15bac219a3df247a382b12b4b2c97f06daecbb746a00d0",
          "transactionIndex": "0x1",
          "logIndex": "0x0",
          "removed": false
        }
      ],
      "logsBloom": "0x00000000000000000000000000000000000000000000000000000000000000000000000000000000000000000000000000000800000000000000000000200008000000000000000000000000000000000000000200000000000000001000000000000000000000000000000000000000000000000000000000080000000000000000000000000000000000000000002000000000000010000000000000000000020000000000000000000000000000000000000000000000000000000000000000000000000000000000000000000000000000000000000000000000000000000010000000000000000002000000000000000000040000000000000000000000",
      "type": "0x2",
      "transactionHash": "0xc8d5982e278624601f15bac219a3df247a382b12b4b2c97f06daecbb746a00d0",
      "transactionIndex": "0x1",
      "blockHash": "0xa3637906c86ec1e5b1f455319dfa903ae8a20fa2697d79c82c9d96c85dbc22da",
      "blockNumber": "0x3213050",
      "gasUsed": "0x68bb",
      "effectiveGasPrice": "0x46f19f00",
      "from": "0x3676b6ed4ae0c9ce3e0034510719fdf5fd585d55",
      "to": "0x78c48a7d7fc69735fdab448fe6068bba44a920e6",
      "contractAddress": null,
      "gasUsedForL1": "0x2c",
      "l1BlockNumber": "0x5c886a"
    }
  ],
  "libraries": [],
  "pending": [],
  "returns": {},
  "timestamp": 1717841731,
  "chain": 421614,
  "commit": "d8ebca1"
}
