{
  "transactions": [
    {
      "hash": "0x269e69c04c5e861a4cb3e7e569a9edf0dd050c033914bfa2990f51e8239287d7",
      "transactionType": "CALL",
      "contractName": null,
      "contractAddress": "0x78c48a7d7fc69735fdab448fe6068bba44a920e6",
      "function": "approve(address,uint256)",
      "arguments": [
        "0x5208f5dE46c25273E2Fb8d5a73d605997BC4CA3F",
        "115792089237316195423570985008687907853269984665640564039457584007913129639935"
      ],
      "transaction": {
        "from": "0x3676b6ed4ae0c9ce3e0034510719fdf5fd585d55",
        "to": "0x78c48a7d7fc69735fdab448fe6068bba44a920e6",
        "gas": "0x89bd",
        "value": "0x0",
        "input": "0x095ea7b30000000000000000000000005208f5de46c25273e2fb8d5a73d605997bc4ca3fffffffffffffffffffffffffffffffffffffffffffffffffffffffffffffffff",
        "nonce": "0x18",
        "chainId": "0x66eee"
      },
      "additionalContracts": [],
      "isFixedGasLimit": false
    },
    {
      "hash": "0x53640c6fd5197e7dce7063d713e2615c19272dbc8799d4c71c8d3f785cd8cd50",
      "transactionType": "CALL",
      "contractName": "BridgeableToken",
      "contractAddress": "0x5208f5de46c25273e2fb8d5a73d605997bc4ca3f",
      "function": "send((uint32,bytes32,uint256,uint256,bytes,bytes,bytes),(uint256,uint256),address)",
      "arguments": [
        "(40267, 0x0000000000000000000000003676b6ed4ae0c9ce3e0034510719fdf5fd585d55, 600000000000000000000, 600000000000000000000, 0x00030100110100000000000000000000000000030d40, 0x0000000000000000000000000000000000000000000000000000000000000001, 0x)",
        "(27078359145301031, 0)",
        "0x3676b6ed4ae0c9ce3E0034510719fdF5fd585d55"
      ],
      "transaction": {
        "from": "0x3676b6ed4ae0c9ce3e0034510719fdf5fd585d55",
        "to": "0x5208f5de46c25273e2fb8d5a73d605997bc4ca3f",
        "gas": "0x55f3c",
        "value": "0x60339fc9f4c427",
        "input": "0xc7c7f5b300000000000000000000000000000000000000000000000000000000000000800000000000000000000000000000000000000000000000000060339fc9f4c42700000000000000000000000000000000000000000000000000000000000000000000000000000000000000003676b6ed4ae0c9ce3e0034510719fdf5fd585d550000000000000000000000000000000000000000000000000000000000009d4b0000000000000000000000003676b6ed4ae0c9ce3e0034510719fdf5fd585d5500000000000000000000000000000000000000000000002086ac35105260000000000000000000000000000000000000000000000000002086ac35105260000000000000000000000000000000000000000000000000000000000000000000e000000000000000000000000000000000000000000000000000000000000001200000000000000000000000000000000000000000000000000000000000000160000000000000000000000000000000000000000000000000000000000000001600030100110100000000000000000000000000030d4000000000000000000000000000000000000000000000000000000000000000000000000000000000002000000000000000000000000000000000000000000000000000000000000000010000000000000000000000000000000000000000000000000000000000000000",
        "nonce": "0x19",
        "chainId": "0x66eee"
      },
      "additionalContracts": [],
      "isFixedGasLimit": false
    }
  ],
  "receipts": [
    {
      "status": "0x1",
      "cumulativeGasUsed": "0x3d7155",
      "logs": [
        {
          "address": "0x78c48a7d7fc69735fdab448fe6068bba44a920e6",
          "topics": [
            "0x8c5be1e5ebec7d5bd14f71427d1e84f3dd0314c0f7b2291e5b200ac8c7c3b925",
            "0x0000000000000000000000003676b6ed4ae0c9ce3e0034510719fdf5fd585d55",
            "0x0000000000000000000000005208f5de46c25273e2fb8d5a73d605997bc4ca3f"
          ],
          "data": "0xffffffffffffffffffffffffffffffffffffffffffffffffffffffffffffffff",
          "blockHash": "0x6cc244b5fdef4b957b55b164080d6ba65b5fdcc9d9808e816bab8a145f7cfaeb",
          "blockNumber": "0x32b1e54",
          "transactionHash": "0x269e69c04c5e861a4cb3e7e569a9edf0dd050c033914bfa2990f51e8239287d7",
          "transactionIndex": "0x9",
          "logIndex": "0x31",
          "removed": false
        }
      ],
      "logsBloom": "0x00000000000000000000000000000000000000000000000000000000000000000000000000000000000000000000000000000800000000000000000000200008000000000000000000000000000000000000000200000000000000001000000000000000000000000000000000000000000000000000000000080000000000000000000000000000000000000000002000000000000010000000000000000000020000000000000000000000000000000000000000000000000000000000000000000000000000000000000000000000000000000000000000000000000000000010000000000000000002000000000000000000040000000000000000000000",
      "type": "0x2",
      "transactionHash": "0x269e69c04c5e861a4cb3e7e569a9edf0dd050c033914bfa2990f51e8239287d7",
      "transactionIndex": "0x9",
      "blockHash": "0x6cc244b5fdef4b957b55b164080d6ba65b5fdcc9d9808e816bab8a145f7cfaeb",
      "blockNumber": "0x32b1e54",
      "gasUsed": "0x6897",
      "effectiveGasPrice": "0xd40f1c0",
      "from": "0x3676b6ed4ae0c9ce3e0034510719fdf5fd585d55",
      "to": "0x78c48a7d7fc69735fdab448fe6068bba44a920e6",
      "contractAddress": null,
      "gasUsedForL1": "0x8",
      "l1BlockNumber": "0x5cbab1"
    },
    {
      "status": "0x1",
      "cumulativeGasUsed": "0x23fb27",
      "logs": [
        {
          "address": "0x78c48a7d7fc69735fdab448fe6068bba44a920e6",
          "topics": [
            "0xddf252ad1be2c89b69c2b068fc378daa952ba7f163c4a11628f55a4df523b3ef",
            "0x0000000000000000000000003676b6ed4ae0c9ce3e0034510719fdf5fd585d55",
            "0x0000000000000000000000000000000000000000000000000000000000000000"
          ],
          "data": "0x00000000000000000000000000000000000000000000002086ac351052600000",
          "blockHash": "0x742c5960f98c9393321eba37a23ce3d445679803577b04a84b9657d85f7c3b21",
          "blockNumber": "0x32b1e59",
          "transactionHash": "0x53640c6fd5197e7dce7063d713e2615c19272dbc8799d4c71c8d3f785cd8cd50",
          "transactionIndex": "0x6",
          "logIndex": "0x1c",
          "removed": false
        },
        {
          "address": "0x4f7cd4da19abb31b0ec98b9066b9e857b1bf9c0e",
          "topics": [
            "0x61ed099e74a97a1d7f8bb0952a88ca8b7b8ebd00c126ea04671f92a81213318a"
          ],
          "data": "0x0000000000000000000000005df3a1cebbd9c8ba7f8df51fd632a9aef83088970000000000000000000000000000000000000000000000000060311fe1cf1f61",
          "blockHash": "0x742c5960f98c9393321eba37a23ce3d445679803577b04a84b9657d85f7c3b21",
          "blockNumber": "0x32b1e59",
          "transactionHash": "0x53640c6fd5197e7dce7063d713e2615c19272dbc8799d4c71c8d3f785cd8cd50",
          "transactionIndex": "0x6",
          "logIndex": "0x1d",
          "removed": false
        },
        {
          "address": "0x4f7cd4da19abb31b0ec98b9066b9e857b1bf9c0e",
          "topics": [
            "0x07ea52d82345d6e838192107d8fd7123d9c2ec8e916cd0aad13fd2b60db24644"
          ],
          "data": "0x000000000000000000000000000000000000000000000000000000000000006000000000000000000000000000000000000000000000000000000000000000a000000000000000000000000000000000000000000000000000000000000000c0000000000000000000000000000000000000000000000000000000000000000100000000000000000000000053f488e93b4f1b60e8e83aa374dbe1780a1ee8a8000000000000000000000000000000000000000000000000000000000000000000000000000000000000000000000000000000000000000000000000000000010000000000000000000000000000000000000000000000000000027fe825a4c6",
          "blockHash": "0x742c5960f98c9393321eba37a23ce3d445679803577b04a84b9657d85f7c3b21",
          "blockNumber": "0x32b1e59",
          "transactionHash": "0x53640c6fd5197e7dce7063d713e2615c19272dbc8799d4c71c8d3f785cd8cd50",
          "transactionIndex": "0x6",
          "logIndex": "0x1e",
          "removed": false
        },
        {
          "address": "0x6edce65403992e310a62460808c4b910d972f10f",
          "topics": [
            "0x1ab700d4ced0c005b164c0f789fd09fcbb0156d4c2041b8a3bfbcd961cd1567f"
          ],
          "data": "0x000000000000000000000000000000000000000000000000000000000000006000000000000000000000000000000000000000000000000000000000000001600000000000000000000000004f7cd4da19abb31b0ec98b9066b9e857b1bf9c0e00000000000000000000000000000000000000000000000000000000000000d901000000000000000500009d270000000000000000000000005208f5de46c25273e2fb8d5a73d605997bc4ca3f00009d4b000000000000000000000000a8fff51a77d03f625178cb521586f9d3445b9675664dc1c3bf778d71dcae3b86681f3c484f4acacbe397c4410d20edee0e3b98800000000000000000000000003676b6ed4ae0c9ce3e0034510719fdf5fd585d550000000023c346000000000000000000000000003676b6ed4ae0c9ce3e0034510719fdf5fd585d55000000000000000000000000000000000000000000000000000000000000000100000000000000000000000000000000000000000000000000000000000000000000000000001600030100110100000000000000000000000000030d4000000000000000000000",
          "blockHash": "0x742c5960f98c9393321eba37a23ce3d445679803577b04a84b9657d85f7c3b21",
          "blockNumber": "0x32b1e59",
          "transactionHash": "0x53640c6fd5197e7dce7063d713e2615c19272dbc8799d4c71c8d3f785cd8cd50",
          "transactionIndex": "0x6",
          "logIndex": "0x1f",
          "removed": false
        },
        {
          "address": "0x5208f5de46c25273e2fb8d5a73d605997bc4ca3f",
          "topics": [
            "0x8ee68c8aca1be04dc70326a9eecac08262ad9a89e4a64bc2972b607c602f3c3b",
            "0x664dc1c3bf778d71dcae3b86681f3c484f4acacbe397c4410d20edee0e3b9880",
            "0x0000000000000000000000003676b6ed4ae0c9ce3e0034510719fdf5fd585d55"
          ],
          "data": "0x0000000000000000000000000000000000000000000000000000000000009d4b000000000000000000000000000000000000000000000000000000000000000100000000000000000000000000000000000000000000002086ac35105260000000000000000000000000000000000000000000000000002086ac351052600000",
          "blockHash": "0x742c5960f98c9393321eba37a23ce3d445679803577b04a84b9657d85f7c3b21",
          "blockNumber": "0x32b1e59",
          "transactionHash": "0x53640c6fd5197e7dce7063d713e2615c19272dbc8799d4c71c8d3f785cd8cd50",
          "transactionIndex": "0x6",
          "logIndex": "0x20",
          "removed": false
        }
      ],
      "logsBloom": "0x00000000000000000000000000800000000000000000000000000000000000000000000000000000200000000000000000000800008000000000000000200008000000000000000000000008000000000000000a0000000001000000100000000000000002000000a200000000000800840000000000000000000010000000000000000000000020000000080000000000000000000010010000000000000000000080008000000000102000000000000000000000400000000440000000000000000002000000000000000000000000000000000000000000000400000020000000040000000000000002000000002000000000000000000000000000000000",
      "type": "0x2",
      "transactionHash": "0x53640c6fd5197e7dce7063d713e2615c19272dbc8799d4c71c8d3f785cd8cd50",
      "transactionIndex": "0x6",
      "blockHash": "0x742c5960f98c9393321eba37a23ce3d445679803577b04a84b9657d85f7c3b21",
      "blockNumber": "0x32b1e59",
      "gasUsed": "0x40044",
      "effectiveGasPrice": "0xd433bb0",
      "from": "0x3676b6ed4ae0c9ce3e0034510719fdf5fd585d55",
      "to": "0x5208f5de46c25273e2fb8d5a73d605997bc4ca3f",
      "contractAddress": null,
      "gasUsedForL1": "0xf",
      "l1BlockNumber": "0x5cbab1"
    }
  ],
  "libraries": [],
  "pending": [],
  "returns": {},
  "timestamp": 1718004424,
  "chain": 421614,
  "commit": "d8ebca1"
}
