{
  "transactions": [
    {
      "hash": "0xd4d008092c2bc20ab7ba970eaaca507e8cf2cd70d72047165e7ad6d3ce036402",
      "transactionType": "CALL",
      "contractName": null,
      "contractAddress": "0x78c48a7d7fc69735fdab448fe6068bba44a920e6",
      "function": "approve(address,uint256)",
      "arguments": [
        "0x5208f5dE46c25273E2Fb8d5a73d605997BC4CA3F",
        "115792089237316195423570985008687907853269984665640564039457584007913129639935"
      ],
      "transaction": {
        "from": "0x3676b6ed4ae0c9ce3e0034510719fdf5fd585d55",
        "to": "0x78c48a7d7fc69735fdab448fe6068bba44a920e6",
        "gas": "0xef52",
        "value": "0x0",
        "input": "0x095ea7b30000000000000000000000005208f5de46c25273e2fb8d5a73d605997bc4ca3fffffffffffffffffffffffffffffffffffffffffffffffffffffffffffffffff",
        "nonce": "0xc",
        "chainId": "0x66eee"
      },
      "additionalContracts": [],
      "isFixedGasLimit": false
    },
    {
      "hash": "0x64817635b2892d2def1967b01388e0ad828eef536bafee2fb607bc841abd7e1b",
      "transactionType": "CALL",
      "contractName": "BridgeableToken",
      "contractAddress": "0x5208f5de46c25273e2fb8d5a73d605997bc4ca3f",
      "function": "send((uint32,bytes32,uint256,uint256,bytes,bytes,bytes),(uint256,uint256),address)",
      "arguments": [
        "(40267, 0x0000000000000000000000001804c8ab1f12e6bbf3894d4083f33e07309d1f38, 1000000000000000000, 1000000000000000000, 0x00030100110100000000000000000000000000030d40, 0x0000000000000000000000000000000000000000000000000000000000000001, 0x)",
        "(27078359145301031, 0)",
        "0x1804c8AB1F12E6bbf3894d4083f33e07309d1f38"
      ],
      "transaction": {
        "from": "0x3676b6ed4ae0c9ce3e0034510719fdf5fd585d55",
        "to": "0x5208f5de46c25273e2fb8d5a73d605997bc4ca3f",
        "gas": "0x66a82",
        "value": "0x60339fc9f4c427",
        "input": "0xc7c7f5b300000000000000000000000000000000000000000000000000000000000000800000000000000000000000000000000000000000000000000060339fc9f4c42700000000000000000000000000000000000000000000000000000000000000000000000000000000000000001804c8ab1f12e6bbf3894d4083f33e07309d1f380000000000000000000000000000000000000000000000000000000000009d4b0000000000000000000000001804c8ab1f12e6bbf3894d4083f33e07309d1f380000000000000000000000000000000000000000000000000de0b6b3a76400000000000000000000000000000000000000000000000000000de0b6b3a764000000000000000000000000000000000000000000000000000000000000000000e000000000000000000000000000000000000000000000000000000000000001200000000000000000000000000000000000000000000000000000000000000160000000000000000000000000000000000000000000000000000000000000001600030100110100000000000000000000000000030d4000000000000000000000000000000000000000000000000000000000000000000000000000000000002000000000000000000000000000000000000000000000000000000000000000010000000000000000000000000000000000000000000000000000000000000000",
        "nonce": "0xd",
        "chainId": "0x66eee"
      },
      "additionalContracts": [],
      "isFixedGasLimit": false
    }
  ],
  "receipts": [
    {
      "status": "0x1",
      "cumulativeGasUsed": "0xb680",
      "logs": [
        {
          "address": "0x78c48a7d7fc69735fdab448fe6068bba44a920e6",
          "topics": [
            "0x8c5be1e5ebec7d5bd14f71427d1e84f3dd0314c0f7b2291e5b200ac8c7c3b925",
            "0x0000000000000000000000003676b6ed4ae0c9ce3e0034510719fdf5fd585d55",
            "0x0000000000000000000000005208f5de46c25273e2fb8d5a73d605997bc4ca3f"
          ],
          "data": "0xffffffffffffffffffffffffffffffffffffffffffffffffffffffffffffffff",
          "blockHash": "0x42378798937a2c0ae8a82821374525b11c029372851dac7a2e8c8e4995cb1267",
          "blockNumber": "0x3212b0c",
          "transactionHash": "0xd4d008092c2bc20ab7ba970eaaca507e8cf2cd70d72047165e7ad6d3ce036402",
          "transactionIndex": "0x1",
          "logIndex": "0x0",
          "removed": false
        }
      ],
      "logsBloom": "0x00000000000000000000000000000000000000000000000000000000000000000000000000000000000000000000000000000800000000000000000000200008000000000000000000000000000000000000000200000000000000001000000000000000000000000000000000000000000000000000000000080000000000000000000000000000000000000000002000000000000010000000000000000000020000000000000000000000000000000000000000000000000000000000000000000000000000000000000000000000000000000000000000000000000000000010000000000000000002000000000000000000040000000000000000000000",
      "type": "0x2",
      "transactionHash": "0xd4d008092c2bc20ab7ba970eaaca507e8cf2cd70d72047165e7ad6d3ce036402",
      "transactionIndex": "0x1",
      "blockHash": "0x42378798937a2c0ae8a82821374525b11c029372851dac7a2e8c8e4995cb1267",
      "blockNumber": "0x3212b0c",
      "gasUsed": "0xb680",
      "effectiveGasPrice": "0x51db0c30",
      "from": "0x3676b6ed4ae0c9ce3e0034510719fdf5fd585d55",
      "to": "0x78c48a7d7fc69735fdab448fe6068bba44a920e6",
      "contractAddress": null,
      "gasUsedForL1": "0x35",
      "l1BlockNumber": "0x5c8850"
    },
    {
      "status": "0x1",
      "cumulativeGasUsed": "0x6b0f3",
      "logs": [
        {
          "address": "0x78c48a7d7fc69735fdab448fe6068bba44a920e6",
          "topics": [
            "0xddf252ad1be2c89b69c2b068fc378daa952ba7f163c4a11628f55a4df523b3ef",
            "0x0000000000000000000000003676b6ed4ae0c9ce3e0034510719fdf5fd585d55",
            "0x0000000000000000000000000000000000000000000000000000000000000000"
          ],
          "data": "0x0000000000000000000000000000000000000000000000000de0b6b3a7640000",
          "blockHash": "0xa0825fb43503db6a0a4707b81491b6b67865be000ed5f34b41c80c5b69036f60",
          "blockNumber": "0x3212b10",
          "transactionHash": "0x64817635b2892d2def1967b01388e0ad828eef536bafee2fb607bc841abd7e1b",
          "transactionIndex": "0x2",
          "logIndex": "0x3",
          "removed": false
        },
        {
          "address": "0x4f7cd4da19abb31b0ec98b9066b9e857b1bf9c0e",
          "topics": [
            "0x61ed099e74a97a1d7f8bb0952a88ca8b7b8ebd00c126ea04671f92a81213318a"
          ],
          "data": "0x0000000000000000000000005df3a1cebbd9c8ba7f8df51fd632a9aef83088970000000000000000000000000000000000000000000000000060311fe1cf1f61",
          "blockHash": "0xa0825fb43503db6a0a4707b81491b6b67865be000ed5f34b41c80c5b69036f60",
          "blockNumber": "0x3212b10",
          "transactionHash": "0x64817635b2892d2def1967b01388e0ad828eef536bafee2fb607bc841abd7e1b",
          "transactionIndex": "0x2",
          "logIndex": "0x4",
          "removed": false
        },
        {
          "address": "0x4f7cd4da19abb31b0ec98b9066b9e857b1bf9c0e",
          "topics": [
            "0x07ea52d82345d6e838192107d8fd7123d9c2ec8e916cd0aad13fd2b60db24644"
          ],
          "data": "0x000000000000000000000000000000000000000000000000000000000000006000000000000000000000000000000000000000000000000000000000000000a000000000000000000000000000000000000000000000000000000000000000c0000000000000000000000000000000000000000000000000000000000000000100000000000000000000000053f488e93b4f1b60e8e83aa374dbe1780a1ee8a8000000000000000000000000000000000000000000000000000000000000000000000000000000000000000000000000000000000000000000000000000000010000000000000000000000000000000000000000000000000000027fe825a4c6",
          "blockHash": "0xa0825fb43503db6a0a4707b81491b6b67865be000ed5f34b41c80c5b69036f60",
          "blockNumber": "0x3212b10",
          "transactionHash": "0x64817635b2892d2def1967b01388e0ad828eef536bafee2fb607bc841abd7e1b",
          "transactionIndex": "0x2",
          "logIndex": "0x5",
          "removed": false
        },
        {
          "address": "0x6edce65403992e310a62460808c4b910d972f10f",
          "topics": [
            "0x1ab700d4ced0c005b164c0f789fd09fcbb0156d4c2041b8a3bfbcd961cd1567f"
          ],
          "data": "0x000000000000000000000000000000000000000000000000000000000000006000000000000000000000000000000000000000000000000000000000000001600000000000000000000000004f7cd4da19abb31b0ec98b9066b9e857b1bf9c0e00000000000000000000000000000000000000000000000000000000000000d901000000000000000100009d270000000000000000000000005208f5de46c25273e2fb8d5a73d605997bc4ca3f00009d4b000000000000000000000000a8fff51a77d03f625178cb521586f9d3445b9675989dfc7f5df939011af8b97a7b7fa57a53a026992708242f4696627e8e4eac780000000000000000000000001804c8ab1f12e6bbf3894d4083f33e07309d1f3800000000000f42400000000000000000000000003676b6ed4ae0c9ce3e0034510719fdf5fd585d55000000000000000000000000000000000000000000000000000000000000000100000000000000000000000000000000000000000000000000000000000000000000000000001600030100110100000000000000000000000000030d4000000000000000000000",
          "blockHash": "0xa0825fb43503db6a0a4707b81491b6b67865be000ed5f34b41c80c5b69036f60",
          "blockNumber": "0x3212b10",
          "transactionHash": "0x64817635b2892d2def1967b01388e0ad828eef536bafee2fb607bc841abd7e1b",
          "transactionIndex": "0x2",
          "logIndex": "0x6",
          "removed": false
        },
        {
          "address": "0x5208f5de46c25273e2fb8d5a73d605997bc4ca3f",
          "topics": [
            "0x8ee68c8aca1be04dc70326a9eecac08262ad9a89e4a64bc2972b607c602f3c3b",
            "0x989dfc7f5df939011af8b97a7b7fa57a53a026992708242f4696627e8e4eac78",
            "0x0000000000000000000000003676b6ed4ae0c9ce3e0034510719fdf5fd585d55"
          ],
          "data": "0x0000000000000000000000000000000000000000000000000000000000009d4b00000000000000000000000000000000000000000000000000000000000000010000000000000000000000000000000000000000000000000de0b6b3a76400000000000000000000000000000000000000000000000000000de0b6b3a7640000",
          "blockHash": "0xa0825fb43503db6a0a4707b81491b6b67865be000ed5f34b41c80c5b69036f60",
          "blockNumber": "0x3212b10",
          "transactionHash": "0x64817635b2892d2def1967b01388e0ad828eef536bafee2fb607bc841abd7e1b",
          "transactionIndex": "0x2",
          "logIndex": "0x7",
          "removed": false
        }
      ],
      "logsBloom": "0x00000000000000000000000000800000002000000000000000000000000000000000000000000000200000000000000000000800008000000000000000200008000000000000000000000008000000000000000200000000010000001000000000000080020000008200000000000800840000000000000000000010000000000000000000000020000000080000000000000000000010010000000000000000000080008000000000102000000000000000000000400000080440000000000000000002000000000000000000000000000000000000000000000000000020000000040000000000000002000000002000000000000000000000000000000000",
      "type": "0x2",
      "transactionHash": "0x64817635b2892d2def1967b01388e0ad828eef536bafee2fb607bc841abd7e1b",
      "transactionIndex": "0x2",
      "blockHash": "0xa0825fb43503db6a0a4707b81491b6b67865be000ed5f34b41c80c5b69036f60",
      "blockNumber": "0x3212b10",
      "gasUsed": "0x4c8f7",
      "effectiveGasPrice": "0x519f62c0",
      "from": "0x3676b6ed4ae0c9ce3e0034510719fdf5fd585d55",
      "to": "0x5208f5de46c25273e2fb8d5a73d605997bc4ca3f",
      "contractAddress": null,
      "gasUsedForL1": "0x5e",
      "l1BlockNumber": "0x5c8850"
    }
  ],
  "libraries": [],
  "pending": [],
  "returns": {},
  "timestamp": 1717841395,
  "chain": 421614,
  "commit": "d8ebca1"
}
