{
  "transactions": [
    {
      "hash": "0xc21fed5f1af33e1f4aba8efabc030e52586381bf3d9046eee83ef426c3874a1d",
      "transactionType": "CALL",
      "contractName": null,
      "contractAddress": "0x78c48a7d7fc69735fdab448fe6068bba44a920e6",
      "function": "approve(address,uint256)",
      "arguments": [
        "0x098e37a2Bfac675CF5A5C21d4f10e391D502D8b6",
        "29000000000000000000"
      ],
      "transaction": {
        "from": "0x3676b6ed4ae0c9ce3e0034510719fdf5fd585d55",
        "to": "0x78c48a7d7fc69735fdab448fe6068bba44a920e6",
        "gas": "0x3037e5",
        "value": "0x0",
        "input": "0x095ea7b3000000000000000000000000098e37a2bfac675cf5a5c21d4f10e391d502d8b60000000000000000000000000000000000000000000000019274b259f6540000",
        "nonce": "0x2c",
        "chainId": "0x66eee"
      },
      "additionalContracts": [],
      "isFixedGasLimit": false
    },
    {
      "hash": "0x8698bc08da153286ba20b4152ec7e8a8b768ad9660713dbd431002b15eeea2d9",
      "transactionType": "CALL",
      "contractName": "BridgeableToken",
      "contractAddress": "0x098e37a2bfac675cf5a5c21d4f10e391d502d8b6",
      "function": "send((uint32,bytes32,uint256,uint256,bytes,bytes,bytes),(uint256,uint256),address)",
      "arguments": [
        "(40267, 0x0000000000000000000000003676b6ed4ae0c9ce3e0034510719fdf5fd585d55, 29000000000000000000, 29000000000000000000, 0x00030100110100000000000000000000000000030d40, 0x0000000000000000000000000000000000000000000000000000000000000001, 0x)",
        "(27079779165701592, 0)",
        "0x3676b6ed4ae0c9ce3E0034510719fdF5fd585d55"
      ],
      "transaction": {
        "from": "0x3676b6ed4ae0c9ce3e0034510719fdf5fd585d55",
        "to": "0x098e37a2bfac675cf5a5c21d4f10e391d502d8b6",
        "gas": "0x5528c1",
        "value": "0x6034ea69c485d8",
        "input": "0xc7c7f5b30000000000000000000000000000000000000000000000000000000000000080000000000000000000000000000000000000000000000000006034ea69c485d800000000000000000000000000000000000000000000000000000000000000000000000000000000000000003676b6ed4ae0c9ce3e0034510719fdf5fd585d550000000000000000000000000000000000000000000000000000000000009d4b0000000000000000000000003676b6ed4ae0c9ce3e0034510719fdf5fd585d550000000000000000000000000000000000000000000000019274b259f65400000000000000000000000000000000000000000000000000019274b259f654000000000000000000000000000000000000000000000000000000000000000000e000000000000000000000000000000000000000000000000000000000000001200000000000000000000000000000000000000000000000000000000000000160000000000000000000000000000000000000000000000000000000000000001600030100110100000000000000000000000000030d4000000000000000000000000000000000000000000000000000000000000000000000000000000000002000000000000000000000000000000000000000000000000000000000000000010000000000000000000000000000000000000000000000000000000000000000",
        "nonce": "0x2d",
        "chainId": "0x66eee"
      },
      "additionalContracts": [],
      "isFixedGasLimit": false
    }
  ],
  "receipts": [
    {
      "status": "0x1",
      "cumulativeGasUsed": "0x1ca997",
      "logs": [
        {
          "address": "0x78c48a7d7fc69735fdab448fe6068bba44a920e6",
          "topics": [
            "0x8c5be1e5ebec7d5bd14f71427d1e84f3dd0314c0f7b2291e5b200ac8c7c3b925",
            "0x0000000000000000000000003676b6ed4ae0c9ce3e0034510719fdf5fd585d55",
            "0x000000000000000000000000098e37a2bfac675cf5a5c21d4f10e391d502d8b6"
          ],
          "data": "0x0000000000000000000000000000000000000000000000019274b259f6540000",
          "blockHash": "0x6a8a8f2cf4f1c2f51d1bb3dd48b6fdb3867b710697bcf86b4fb5ee5294565b44",
          "blockNumber": "0x382d114",
          "transactionHash": "0xc21fed5f1af33e1f4aba8efabc030e52586381bf3d9046eee83ef426c3874a1d",
          "transactionIndex": "0x1",
          "logIndex": "0x0",
          "removed": false
        }
      ],
      "logsBloom": "0x00000000000050000000000000000000000000000000000000000000000000000000000000000000000000000000000000000800000000000000000000200008000000000000000000000000000000000000000200000000000000001000000000000000000000000000000000000000000000000000000000000000000000000000000000000000000000000000000000000000000010000000000000000000020000000000000000000000000000000000000000000000000000000000000000000000800000000000000000000000000000000000000000000000000000000010000000000000000002000000000000000000000000000000000000000000",
      "type": "0x2",
      "transactionHash": "0xc21fed5f1af33e1f4aba8efabc030e52586381bf3d9046eee83ef426c3874a1d",
      "transactionIndex": "0x1",
      "blockHash": "0x6a8a8f2cf4f1c2f51d1bb3dd48b6fdb3867b710697bcf86b4fb5ee5294565b44",
      "blockNumber": "0x382d114",
      "gasUsed": "0x1ca997",
      "effectiveGasPrice": "0x5f5e100",
      "from": "0x3676b6ed4ae0c9ce3e0034510719fdf5fd585d55",
      "to": "0x78c48a7d7fc69735fdab448fe6068bba44a920e6",
      "contractAddress": null,
      "gasUsedForL1": "0x1c3744",
      "l1BlockNumber": "0x5e94e0"
    },
    {
      "status": "0x1",
      "cumulativeGasUsed": "0x13f2ae5",
      "logs": [
        {
          "address": "0x78c48a7d7fc69735fdab448fe6068bba44a920e6",
          "topics": [
            "0xddf252ad1be2c89b69c2b068fc378daa952ba7f163c4a11628f55a4df523b3ef",
            "0x0000000000000000000000003676b6ed4ae0c9ce3e0034510719fdf5fd585d55",
            "0x0000000000000000000000000000000000000000000000000000000000000000"
          ],
          "data": "0x0000000000000000000000000000000000000000000000019274b259f6540000",
          "blockHash": "0x8ae89e2f672d0c93ab42cfb59e4b7e617a5104e0414a9321c29578a7e9bdf6ac",
          "blockNumber": "0x382d119",
          "transactionHash": "0x8698bc08da153286ba20b4152ec7e8a8b768ad9660713dbd431002b15eeea2d9",
          "transactionIndex": "0x2",
          "logIndex": "0x8",
          "removed": false
        },
        {
          "address": "0x4f7cd4da19abb31b0ec98b9066b9e857b1bf9c0e",
          "topics": [
            "0x61ed099e74a97a1d7f8bb0952a88ca8b7b8ebd00c126ea04671f92a81213318a"
          ],
          "data": "0x0000000000000000000000005df3a1cebbd9c8ba7f8df51fd632a9aef8308897000000000000000000000000000000000000000000000000006032161c2c015e",
          "blockHash": "0x8ae89e2f672d0c93ab42cfb59e4b7e617a5104e0414a9321c29578a7e9bdf6ac",
          "blockNumber": "0x382d119",
          "transactionHash": "0x8698bc08da153286ba20b4152ec7e8a8b768ad9660713dbd431002b15eeea2d9",
          "transactionIndex": "0x2",
          "logIndex": "0x9",
          "removed": false
        },
        {
          "address": "0x4f7cd4da19abb31b0ec98b9066b9e857b1bf9c0e",
          "topics": [
            "0x07ea52d82345d6e838192107d8fd7123d9c2ec8e916cd0aad13fd2b60db24644"
          ],
          "data": "0x000000000000000000000000000000000000000000000000000000000000006000000000000000000000000000000000000000000000000000000000000000a000000000000000000000000000000000000000000000000000000000000000c0000000000000000000000000000000000000000000000000000000000000000100000000000000000000000053f488e93b4f1b60e8e83aa374dbe1780a1ee8a800000000000000000000000000000000000000000000000000000000000000000000000000000000000000000000000000000000000000000000000000000001000000000000000000000000000000000000000000000000000002d44d98847a",
          "blockHash": "0x8ae89e2f672d0c93ab42cfb59e4b7e617a5104e0414a9321c29578a7e9bdf6ac",
          "blockNumber": "0x382d119",
          "transactionHash": "0x8698bc08da153286ba20b4152ec7e8a8b768ad9660713dbd431002b15eeea2d9",
          "transactionIndex": "0x2",
          "logIndex": "0xa",
          "removed": false
        },
        {
          "address": "0x6edce65403992e310a62460808c4b910d972f10f",
          "topics": [
            "0x1ab700d4ced0c005b164c0f789fd09fcbb0156d4c2041b8a3bfbcd961cd1567f"
          ],
          "data": "0x000000000000000000000000000000000000000000000000000000000000006000000000000000000000000000000000000000000000000000000000000001600000000000000000000000004f7cd4da19abb31b0ec98b9066b9e857b1bf9c0e00000000000000000000000000000000000000000000000000000000000000d901000000000000000200009d27000000000000000000000000098e37a2bfac675cf5a5c21d4f10e391d502d8b600009d4b0000000000000000000000007e6bc0dc649f5e48842c881e97666c7e21d0a43383ddea746a608b8a25d6a2ed0326e923de9c40fb306b03e112c71e645b71f0b20000000000000000000000003676b6ed4ae0c9ce3e0034510719fdf5fd585d550000000001ba81400000000000000000000000003676b6ed4ae0c9ce3e0034510719fdf5fd585d55000000000000000000000000000000000000000000000000000000000000000100000000000000000000000000000000000000000000000000000000000000000000000000001600030100110100000000000000000000000000030d4000000000000000000000",
          "blockHash": "0x8ae89e2f672d0c93ab42cfb59e4b7e617a5104e0414a9321c29578a7e9bdf6ac",
          "blockNumber": "0x382d119",
          "transactionHash": "0x8698bc08da153286ba20b4152ec7e8a8b768ad9660713dbd431002b15eeea2d9",
          "transactionIndex": "0x2",
          "logIndex": "0xb",
          "removed": false
        },
        {
          "address": "0x098e37a2bfac675cf5a5c21d4f10e391d502d8b6",
          "topics": [
            "0x48812476642db57172e851d4d23051284172f7a88ed903fbdadb1e7209d0b967",
            "0x83ddea746a608b8a25d6a2ed0326e923de9c40fb306b03e112c71e645b71f0b2",
            "0x0000000000000000000000003676b6ed4ae0c9ce3e0034510719fdf5fd585d55",
            "0x0000000000000000000000003676b6ed4ae0c9ce3e0034510719fdf5fd585d55"
          ],
          "data": "0x0000000000000000000000000000000000000000000000000000000000009d4b00000000000000000000000000000000000000000000000000000000000000010000000000000000000000000000000000000000000000019274b259f65400000000000000000000000000000000000000000000000000019274b259f6540000",
          "blockHash": "0x8ae89e2f672d0c93ab42cfb59e4b7e617a5104e0414a9321c29578a7e9bdf6ac",
          "blockNumber": "0x382d119",
          "transactionHash": "0x8698bc08da153286ba20b4152ec7e8a8b768ad9660713dbd431002b15eeea2d9",
          "transactionIndex": "0x2",
          "logIndex": "0xc",
          "removed": false
        }
      ],
      "logsBloom": "0x00000000000000000000100000000000000000000000000000000000000000000000000000000000200000000000000000000800008000000000000000000008000000000000000000000008000000000000000200000000000000001000020000000000030800008200000000000800000000000000000000000010000000000000000000000020000000080000000000000000000010010000000000000000000000018000000000102000000000000000000000500400000440000000000000000002000000000000000000000000000000000000000000000000000020000000040000000020000002000000002000000000800000000000000000000000",
      "type": "0x2",
      "transactionHash": "0x8698bc08da153286ba20b4152ec7e8a8b768ad9660713dbd431002b15eeea2d9",
      "transactionIndex": "0x2",
      "blockHash": "0x8ae89e2f672d0c93ab42cfb59e4b7e617a5104e0414a9321c29578a7e9bdf6ac",
      "blockNumber": "0x382d119",
      "gasUsed": "0x36b3e5",
      "effectiveGasPrice": "0x5f5e100",
      "from": "0x3676b6ed4ae0c9ce3e0034510719fdf5fd585d55",
      "to": "0x098e37a2bfac675cf5a5c21d4f10e391d502d8b6",
      "contractAddress": null,
      "gasUsedForL1": "0x32b212",
      "l1BlockNumber": "0x5e94e0"
    }
  ],
  "libraries": [],
  "pending": [],
  "returns": {},
  "timestamp": 1719498988,
  "chain": 421614,
  "commit": "fecb34e"
}
