{
  "transactions": [
    {
      "hash": "0x155912adbdfad111f9c4fee649a4d8f004c39a8c5ac18d696f8469b56200ffab",
      "transactionType": "CALL",
      "contractName": null,
      "contractAddress": "0x78c48a7d7fc69735fdab448fe6068bba44a920e6",
      "function": "approve(address,uint256)",
      "arguments": [
        "0x098e37a2Bfac675CF5A5C21d4f10e391D502D8b6",
        "10000000000000000000"
      ],
      "transaction": {
        "from": "0x3676b6ed4ae0c9ce3e0034510719fdf5fd585d55",
        "to": "0x78c48a7d7fc69735fdab448fe6068bba44a920e6",
        "gas": "0x170517",
        "value": "0x0",
        "input": "0x095ea7b3000000000000000000000000098e37a2bfac675cf5a5c21d4f10e391d502d8b60000000000000000000000000000000000000000000000008ac7230489e80000",
        "nonce": "0x2a",
        "chainId": "0x66eee"
      },
      "additionalContracts": [],
      "isFixedGasLimit": false
    },
    {
      "hash": "0x80297d29adfe006c4aab1c55044b37798c5598ebc893b58abcdadff8f92bd060",
      "transactionType": "CALL",
      "contractName": "BridgeableToken",
      "contractAddress": "0x098e37a2bfac675cf5a5c21d4f10e391d502d8b6",
      "function": "send((uint32,bytes32,uint256,uint256,bytes,bytes,bytes),(uint256,uint256),address)",
      "arguments": [
        "(40267, 0x0000000000000000000000003676b6ed4ae0c9ce3e0034510719fdf5fd585d55, 10000000000000000000, 10000000000000000000, 0x00030100110100000000000000000000000000030d40, 0x0000000000000000000000000000000000000000000000000000000000000001, 0x)",
        "(27080221873772839, 0)",
        "0x3676b6ed4ae0c9ce3E0034510719fdF5fd585d55"
      ],
      "transaction": {
        "from": "0x3676b6ed4ae0c9ce3e0034510719fdf5fd585d55",
        "to": "0x098e37a2bfac675cf5a5c21d4f10e391d502d8b6",
        "gas": "0x2b8999",
        "value": "0x6035517d399927",
        "input": "0xc7c7f5b30000000000000000000000000000000000000000000000000000000000000080000000000000000000000000000000000000000000000000006035517d39992700000000000000000000000000000000000000000000000000000000000000000000000000000000000000003676b6ed4ae0c9ce3e0034510719fdf5fd585d550000000000000000000000000000000000000000000000000000000000009d4b0000000000000000000000003676b6ed4ae0c9ce3e0034510719fdf5fd585d550000000000000000000000000000000000000000000000008ac7230489e800000000000000000000000000000000000000000000000000008ac7230489e8000000000000000000000000000000000000000000000000000000000000000000e000000000000000000000000000000000000000000000000000000000000001200000000000000000000000000000000000000000000000000000000000000160000000000000000000000000000000000000000000000000000000000000001600030100110100000000000000000000000000030d4000000000000000000000000000000000000000000000000000000000000000000000000000000000002000000000000000000000000000000000000000000000000000000000000000010000000000000000000000000000000000000000000000000000000000000000",
        "nonce": "0x2b",
        "chainId": "0x66eee"
      },
      "additionalContracts": [],
      "isFixedGasLimit": false
    }
  ],
  "receipts": [
    {
      "status": "0x1",
      "cumulativeGasUsed": "0x3e9ec7",
      "logs": [
        {
          "address": "0x78c48a7d7fc69735fdab448fe6068bba44a920e6",
          "topics": [
            "0x8c5be1e5ebec7d5bd14f71427d1e84f3dd0314c0f7b2291e5b200ac8c7c3b925",
            "0x0000000000000000000000003676b6ed4ae0c9ce3e0034510719fdf5fd585d55",
            "0x000000000000000000000000098e37a2bfac675cf5a5c21d4f10e391d502d8b6"
          ],
          "data": "0x0000000000000000000000000000000000000000000000008ac7230489e80000",
          "blockHash": "0xba0406ebaad54be76669a1431550427da337ffe2e6bab7a484ab6c66aae97e2c",
          "blockNumber": "0x382857b",
          "transactionHash": "0x155912adbdfad111f9c4fee649a4d8f004c39a8c5ac18d696f8469b56200ffab",
          "transactionIndex": "0x3",
          "logIndex": "0x4",
          "removed": false
        }
      ],
      "logsBloom": "0x00000000000050000000000000000000000000000000000000000000000000000000000000000000000000000000000000000800000000000000000000200008000000000000000000000000000000000000000200000000000000001000000000000000000000000000000000000000000000000000000000000000000000000000000000000000000000000000000000000000000010000000000000000000020000000000000000000000000000000000000000000000000000000000000000000000800000000000000000000000000000000000000000000000000000000010000000000000000002000000000000000000000000000000000000000000",
      "type": "0x2",
      "transactionHash": "0x155912adbdfad111f9c4fee649a4d8f004c39a8c5ac18d696f8469b56200ffab",
      "transactionIndex": "0x3",
      "blockHash": "0xba0406ebaad54be76669a1431550427da337ffe2e6bab7a484ab6c66aae97e2c",
      "blockNumber": "0x382857b",
      "gasUsed": "0xdc976",
      "effectiveGasPrice": "0x5f5e100",
      "from": "0x3676b6ed4ae0c9ce3e0034510719fdf5fd585d55",
      "to": "0x78c48a7d7fc69735fdab448fe6068bba44a920e6",
      "contractAddress": null,
      "gasUsedForL1": "0xd1463",
      "l1BlockNumber": "0x5e9333"
    },
    {
      "status": "0x1",
      "cumulativeGasUsed": "0x1ba49a",
      "logs": [
        {
          "address": "0x78c48a7d7fc69735fdab448fe6068bba44a920e6",
          "topics": [
            "0xddf252ad1be2c89b69c2b068fc378daa952ba7f163c4a11628f55a4df523b3ef",
            "0x0000000000000000000000003676b6ed4ae0c9ce3e0034510719fdf5fd585d55",
            "0x0000000000000000000000000000000000000000000000000000000000000000"
          ],
          "data": "0x0000000000000000000000000000000000000000000000008ac7230489e80000",
          "blockHash": "0xb36b46c6118e598fef43bcd1ce24026c7e315648370334c0a1c6896e1d5ebc4d",
          "blockNumber": "0x3828580",
          "transactionHash": "0x80297d29adfe006c4aab1c55044b37798c5598ebc893b58abcdadff8f92bd060",
          "transactionIndex": "0x1",
          "logIndex": "0x0",
          "removed": false
        },
        {
          "address": "0x4f7cd4da19abb31b0ec98b9066b9e857b1bf9c0e",
          "topics": [
            "0x61ed099e74a97a1d7f8bb0952a88ca8b7b8ebd00c126ea04671f92a81213318a"
          ],
          "data": "0x0000000000000000000000005df3a1cebbd9c8ba7f8df51fd632a9aef830889700000000000000000000000000000000000000000000000000603262dfe0567f",
          "blockHash": "0xb36b46c6118e598fef43bcd1ce24026c7e315648370334c0a1c6896e1d5ebc4d",
          "blockNumber": "0x3828580",
          "transactionHash": "0x80297d29adfe006c4aab1c55044b37798c5598ebc893b58abcdadff8f92bd060",
          "transactionIndex": "0x1",
          "logIndex": "0x1",
          "removed": false
        },
        {
          "address": "0x4f7cd4da19abb31b0ec98b9066b9e857b1bf9c0e",
          "topics": [
            "0x07ea52d82345d6e838192107d8fd7123d9c2ec8e916cd0aad13fd2b60db24644"
          ],
          "data": "0x000000000000000000000000000000000000000000000000000000000000006000000000000000000000000000000000000000000000000000000000000000a000000000000000000000000000000000000000000000000000000000000000c0000000000000000000000000000000000000000000000000000000000000000100000000000000000000000053f488e93b4f1b60e8e83aa374dbe1780a1ee8a800000000000000000000000000000000000000000000000000000000000000000000000000000000000000000000000000000000000000000000000000000001000000000000000000000000000000000000000000000000000002ee9d5942a8",
          "blockHash": "0xb36b46c6118e598fef43bcd1ce24026c7e315648370334c0a1c6896e1d5ebc4d",
          "blockNumber": "0x3828580",
          "transactionHash": "0x80297d29adfe006c4aab1c55044b37798c5598ebc893b58abcdadff8f92bd060",
          "transactionIndex": "0x1",
          "logIndex": "0x2",
          "removed": false
        },
        {
          "address": "0x6edce65403992e310a62460808c4b910d972f10f",
          "topics": [
            "0x1ab700d4ced0c005b164c0f789fd09fcbb0156d4c2041b8a3bfbcd961cd1567f"
          ],
          "data": "0x000000000000000000000000000000000000000000000000000000000000006000000000000000000000000000000000000000000000000000000000000001600000000000000000000000004f7cd4da19abb31b0ec98b9066b9e857b1bf9c0e00000000000000000000000000000000000000000000000000000000000000d901000000000000000100009d27000000000000000000000000098e37a2bfac675cf5a5c21d4f10e391d502d8b600009d4b0000000000000000000000007e6bc0dc649f5e48842c881e97666c7e21d0a4338ee6123831c62f7ace9774e6618a87dcf2a7995fb444afb6efec152db97a5c3d0000000000000000000000003676b6ed4ae0c9ce3e0034510719fdf5fd585d5500000000009896800000000000000000000000003676b6ed4ae0c9ce3e0034510719fdf5fd585d55000000000000000000000000000000000000000000000000000000000000000100000000000000000000000000000000000000000000000000000000000000000000000000001600030100110100000000000000000000000000030d4000000000000000000000",
          "blockHash": "0xb36b46c6118e598fef43bcd1ce24026c7e315648370334c0a1c6896e1d5ebc4d",
          "blockNumber": "0x3828580",
          "transactionHash": "0x80297d29adfe006c4aab1c55044b37798c5598ebc893b58abcdadff8f92bd060",
          "transactionIndex": "0x1",
          "logIndex": "0x3",
          "removed": false
        },
        {
          "address": "0x098e37a2bfac675cf5a5c21d4f10e391d502d8b6",
          "topics": [
            "0x48812476642db57172e851d4d23051284172f7a88ed903fbdadb1e7209d0b967",
            "0x8ee6123831c62f7ace9774e6618a87dcf2a7995fb444afb6efec152db97a5c3d",
            "0x0000000000000000000000003676b6ed4ae0c9ce3e0034510719fdf5fd585d55",
            "0x0000000000000000000000003676b6ed4ae0c9ce3e0034510719fdf5fd585d55"
          ],
          "data": "0x0000000000000000000000000000000000000000000000000000000000009d4b00000000000000000000000000000000000000000000000000000000000000010000000000000000000000000000000000000000000000008ac7230489e800000000000000000000000000000000000000000000000000008ac7230489e80000",
          "blockHash": "0xb36b46c6118e598fef43bcd1ce24026c7e315648370334c0a1c6896e1d5ebc4d",
          "blockNumber": "0x3828580",
          "transactionHash": "0x80297d29adfe006c4aab1c55044b37798c5598ebc893b58abcdadff8f92bd060",
          "transactionIndex": "0x1",
          "logIndex": "0x4",
          "removed": false
        }
      ],
      "logsBloom": "0x00000000000000000000100000000000000000000000000000000000000000000000000000000000200000000000000000000800008004000000000000000008000000000000000000000008000000000000000200000000000000001000020000000000020000008200400000000800000000000000000000000010000000000000000000000020000000080000000000000000000010010000000000000000000000018000000000102000000000000000000000500000000440000000000000000002000000000000000000000000000000000000000000000000000020000000040000000020020002000000002000000000800000000000000000000000",
      "type": "0x2",
      "transactionHash": "0x80297d29adfe006c4aab1c55044b37798c5598ebc893b58abcdadff8f92bd060",
      "transactionIndex": "0x1",
      "blockHash": "0xb36b46c6118e598fef43bcd1ce24026c7e315648370334c0a1c6896e1d5ebc4d",
      "blockNumber": "0x3828580",
      "gasUsed": "0x1ba49a",
      "effectiveGasPrice": "0x5f5e100",
      "from": "0x3676b6ed4ae0c9ce3e0034510719fdf5fd585d55",
      "to": "0x098e37a2bfac675cf5a5c21d4f10e391d502d8b6",
      "contractAddress": null,
      "gasUsedForL1": "0x16da7b",
      "l1BlockNumber": "0x5e9333"
    }
  ],
  "libraries": [],
  "pending": [],
  "returns": {},
  "timestamp": 1719493833,
  "chain": 421614,
  "commit": "fecb34e"
}
