{
  "transactions": [
    {
      "hash": "0x4962824051cd511b590ac499de2c5093894bbd4575473a89c59add5b5be9688d",
      "transactionType": "CALL",
      "contractName": null,
      "contractAddress": "0x78c48a7d7fc69735fdab448fe6068bba44a920e6",
      "function": "approve(address,uint256)",
      "arguments": [
        "0x86AfA59fF739b5bE56Ce8a81A424af17B29668e9",
        "30000000000000000000"
      ],
      "transaction": {
        "from": "0x3676b6ed4ae0c9ce3e0034510719fdf5fd585d55",
        "to": "0x78c48a7d7fc69735fdab448fe6068bba44a920e6",
        "gas": "0x36cfa2",
        "value": "0x0",
        "input": "0x095ea7b300000000000000000000000086afa59ff739b5be56ce8a81a424af17b29668e9000000000000000000000000000000000000000000000001a055690d9db80000",
        "nonce": "0x31",
        "chainId": "0x66eee"
      },
      "additionalContracts": [],
      "isFixedGasLimit": false
    },
    {
      "hash": "0x719c4457d9539707eb04d6116d29dbe270525d2c7715aa1ecfef69ce922550df",
      "transactionType": "CALL",
      "contractName": "BridgeableToken",
      "contractAddress": "0x86afa59ff739b5be56ce8a81a424af17b29668e9",
      "function": "send((uint32,bytes32,uint256,uint256,bytes,bytes,bytes),(uint256,uint256),address)",
      "arguments": [
        "(40267, 0x0000000000000000000000003676b6ed4ae0c9ce3e0034510719fdf5fd585d55, 30000000000000000000, 30000000000000000000, 0x00030100110100000000000000000000000000030d40, 0x0000000000000000000000000000000000000000000000000000000000000001, 0x)",
        "(45362393523120609, 0)",
        "0x3676b6ed4ae0c9ce3E0034510719fdF5fd585d55"
      ],
      "transaction": {
        "from": "0x3676b6ed4ae0c9ce3e0034510719fdf5fd585d55",
        "to": "0x86afa59ff739b5be56ce8a81a424af17b29668e9",
        "gas": "0x614899",
        "value": "0xa128db481b69e1",
        "input": "0xc7c7f5b3000000000000000000000000000000000000000000000000000000000000008000000000000000000000000000000000000000000000000000a128db481b69e100000000000000000000000000000000000000000000000000000000000000000000000000000000000000003676b6ed4ae0c9ce3e0034510719fdf5fd585d550000000000000000000000000000000000000000000000000000000000009d4b0000000000000000000000003676b6ed4ae0c9ce3e0034510719fdf5fd585d55000000000000000000000000000000000000000000000001a055690d9db80000000000000000000000000000000000000000000000000001a055690d9db8000000000000000000000000000000000000000000000000000000000000000000e000000000000000000000000000000000000000000000000000000000000001200000000000000000000000000000000000000000000000000000000000000160000000000000000000000000000000000000000000000000000000000000001600030100110100000000000000000000000000030d4000000000000000000000000000000000000000000000000000000000000000000000000000000000002000000000000000000000000000000000000000000000000000000000000000010000000000000000000000000000000000000000000000000000000000000000",
        "nonce": "0x32",
        "chainId": "0x66eee"
      },
      "additionalContracts": [],
      "isFixedGasLimit": false
    }
  ],
  "receipts": [
    {
      "status": "0x1",
      "cumulativeGasUsed": "0x20a0c0",
      "logs": [
        {
          "address": "0x78c48a7d7fc69735fdab448fe6068bba44a920e6",
          "topics": [
            "0x8c5be1e5ebec7d5bd14f71427d1e84f3dd0314c0f7b2291e5b200ac8c7c3b925",
            "0x0000000000000000000000003676b6ed4ae0c9ce3e0034510719fdf5fd585d55",
            "0x00000000000000000000000086afa59ff739b5be56ce8a81a424af17b29668e9"
          ],
          "data": "0x000000000000000000000000000000000000000000000001a055690d9db80000",
          "blockHash": "0x61a406fbef8cc31fe786699d268693e33e96c83765f5265eddbe82158b921711",
          "blockNumber": "0x4b348f6",
          "transactionHash": "0x4962824051cd511b590ac499de2c5093894bbd4575473a89c59add5b5be9688d",
          "transactionIndex": "0x1",
          "logIndex": "0x0",
          "removed": false
        }
      ],
      "logsBloom": "0x00000000000000000000000000000000000000000000000000000000000000000100000000000000000000000000000000000800000000000000000000200008000000000000000000000000000000000000000200000000000000001000000000000000000000000000000000000000000000000000000010000000100000000000000000000000000000000000000000000000000010000000000000000000020000000000000000000000000000000000000000000000000000000000000000000000000000000000000000000000000000000000000000000000000000000010000000000000000002000000000000000000000000000000000000000000",
      "type": "0x2",
      "transactionHash": "0x4962824051cd511b590ac499de2c5093894bbd4575473a89c59add5b5be9688d",
      "transactionIndex": "0x1",
      "blockHash": "0x61a406fbef8cc31fe786699d268693e33e96c83765f5265eddbe82158b921711",
      "blockNumber": "0x4b348f6",
      "gasUsed": "0x20a0c0",
      "effectiveGasPrice": "0x5f5e100",
      "from": "0x3676b6ed4ae0c9ce3e0034510719fdf5fd585d55",
      "to": "0x78c48a7d7fc69735fdab448fe6068bba44a920e6",
      "contractAddress": null,
      "gasUsedForL1": "0x1feba1",
      "l1BlockNumber": "0x65a3f1"
    },
    {
      "status": "0x1",
      "cumulativeGasUsed": "0xd1bb3b",
      "logs": [
        {
          "address": "0x78c48a7d7fc69735fdab448fe6068bba44a920e6",
          "topics": [
            "0xddf252ad1be2c89b69c2b068fc378daa952ba7f163c4a11628f55a4df523b3ef",
            "0x0000000000000000000000003676b6ed4ae0c9ce3e0034510719fdf5fd585d55",
            "0x0000000000000000000000000000000000000000000000000000000000000000"
          ],
          "data": "0x000000000000000000000000000000000000000000000001a055690d9db80000",
          "blockHash": "0xf17190fea818e66db1decf8b10553a37ff16e46c3bc4fab9430b34103c479fdf",
          "blockNumber": "0x4b348fa",
          "transactionHash": "0x719c4457d9539707eb04d6116d29dbe270525d2c7715aa1ecfef69ce922550df",
          "transactionIndex": "0x3",
          "logIndex": "0x5",
          "removed": false
        },
        {
          "address": "0x4f7cd4da19abb31b0ec98b9066b9e857b1bf9c0e",
          "topics": [
            "0x61ed099e74a97a1d7f8bb0952a88ca8b7b8ebd00c126ea04671f92a81213318a"
          ],
          "data": "0x0000000000000000000000005df3a1cebbd9c8ba7f8df51fd632a9aef830889700000000000000000000000000000000000000000000000000a12447d0155e7c",
          "blockHash": "0xf17190fea818e66db1decf8b10553a37ff16e46c3bc4fab9430b34103c479fdf",
          "blockNumber": "0x4b348fa",
          "transactionHash": "0x719c4457d9539707eb04d6116d29dbe270525d2c7715aa1ecfef69ce922550df",
          "transactionIndex": "0x3",
          "logIndex": "0x6",
          "removed": false
        },
        {
          "address": "0x4f7cd4da19abb31b0ec98b9066b9e857b1bf9c0e",
          "topics": [
            "0x07ea52d82345d6e838192107d8fd7123d9c2ec8e916cd0aad13fd2b60db24644"
          ],
          "data": "0x000000000000000000000000000000000000000000000000000000000000006000000000000000000000000000000000000000000000000000000000000000a000000000000000000000000000000000000000000000000000000000000000c0000000000000000000000000000000000000000000000000000000000000000100000000000000000000000053f488e93b4f1b60e8e83aa374dbe1780a1ee8a8000000000000000000000000000000000000000000000000000000000000000000000000000000000000000000000000000000000000000000000000000000010000000000000000000000000000000000000000000000000000049378060b65",
          "blockHash": "0xf17190fea818e66db1decf8b10553a37ff16e46c3bc4fab9430b34103c479fdf",
          "blockNumber": "0x4b348fa",
          "transactionHash": "0x719c4457d9539707eb04d6116d29dbe270525d2c7715aa1ecfef69ce922550df",
          "transactionIndex": "0x3",
          "logIndex": "0x7",
          "removed": false
        },
        {
          "address": "0x6edce65403992e310a62460808c4b910d972f10f",
          "topics": [
            "0x1ab700d4ced0c005b164c0f789fd09fcbb0156d4c2041b8a3bfbcd961cd1567f"
          ],
          "data": "0x000000000000000000000000000000000000000000000000000000000000006000000000000000000000000000000000000000000000000000000000000001600000000000000000000000004f7cd4da19abb31b0ec98b9066b9e857b1bf9c0e00000000000000000000000000000000000000000000000000000000000000d901000000000000000100009d2700000000000000000000000086afa59ff739b5be56ce8a81a424af17b29668e900009d4b000000000000000000000000fcba2b3fa587c46a0f3158b43cc020c5026b53a8a11a6c1716aefcf297218cc1d158c131db931f18e75a48984876524619ace9e90000000000000000000000003676b6ed4ae0c9ce3e0034510719fdf5fd585d550000000001c9c3800000000000000000000000003676b6ed4ae0c9ce3e0034510719fdf5fd585d55000000000000000000000000000000000000000000000000000000000000000100000000000000000000000000000000000000000000000000000000000000000000000000001600030100110100000000000000000000000000030d4000000000000000000000",
          "blockHash": "0xf17190fea818e66db1decf8b10553a37ff16e46c3bc4fab9430b34103c479fdf",
          "blockNumber": "0x4b348fa",
          "transactionHash": "0x719c4457d9539707eb04d6116d29dbe270525d2c7715aa1ecfef69ce922550df",
          "transactionIndex": "0x3",
          "logIndex": "0x8",
          "removed": false
        },
        {
          "address": "0x86afa59ff739b5be56ce8a81a424af17b29668e9",
          "topics": [
            "0x031ac60f40cc4c09c7ebd70b93ac8b3b305ac250643d031922c6e3885ef9e828",
            "0xa11a6c1716aefcf297218cc1d158c131db931f18e75a48984876524619ace9e9",
            "0x0000000000000000000000003676b6ed4ae0c9ce3e0034510719fdf5fd585d55",
            "0x0000000000000000000000003676b6ed4ae0c9ce3e0034510719fdf5fd585d55"
          ],
          "data": "0x0000000000000000000000000000000000000000000000000000000000009d4b00000000000000000000000000000000000000000000000000a128db481b69e10000000000000000000000000000000000000000000000000000000000000001000000000000000000000000000000000000000000000001a055690d9db80000000000000000000000000000000000000000000000000001a055690d9db80000",
          "blockHash": "0xf17190fea818e66db1decf8b10553a37ff16e46c3bc4fab9430b34103c479fdf",
          "blockNumber": "0x4b348fa",
          "transactionHash": "0x719c4457d9539707eb04d6116d29dbe270525d2c7715aa1ecfef69ce922550df",
          "transactionIndex": "0x3",
          "logIndex": "0x9",
          "removed": false
        }
      ],
      "logsBloom": "0x00000000000000000000000000000000000001000000000000000000000000000000000800000000200000000000000000000800008000000000000000000008000000000000000000000008000000000000000200000000000000001000000000000000020000008200000000000800000000000000000000000010000000000000000000000020000000084000000000000000000010010000000000000000000000008000000000102000000000000000000000400800000440000000000000240002000000000000020000000000000010000000000000000000000020000000040000000000000002000000012000000000000000000000000000000000",
      "type": "0x2",
      "transactionHash": "0x719c4457d9539707eb04d6116d29dbe270525d2c7715aa1ecfef69ce922550df",
      "transactionIndex": "0x3",
      "blockHash": "0xf17190fea818e66db1decf8b10553a37ff16e46c3bc4fab9430b34103c479fdf",
      "blockNumber": "0x4b348fa",
      "gasUsed": "0x3d2b47",
      "effectiveGasPrice": "0x5f5e100",
      "from": "0x3676b6ed4ae0c9ce3e0034510719fdf5fd585d55",
      "to": "0x86afa59ff739b5be56ce8a81a424af17b29668e9",
      "contractAddress": null,
      "gasUsedForL1": "0x384c99",
      "l1BlockNumber": "0x65a3f2"
    }
  ],
  "libraries": [],
  "pending": [],
  "returns": {},
  "timestamp": 1725886564,
  "chain": 421614,
  "commit": "3337cad"
}
