{
  "transactions": [
    {
      "hash": "0x8f1bd6447f00f96abf9aa977ee7dd79110b01b0a2eab1e44721739d0c27e736d",
      "transactionType": "CALL",
      "contractName": "BridgeableToken",
      "contractAddress": "0x65791b76d6129b3d299600384c3b210eab695032",
      "function": "setPeer(uint32,bytes32)",
      "arguments": [
        "40267",
        "0x0000000000000000000000007e6bc0dc649f5e48842c881e97666c7e21d0a433"
      ],
      "transaction": {
        "from": "0x3676b6ed4ae0c9ce3e0034510719fdf5fd585d55",
        "to": "0x65791b76d6129b3d299600384c3b210eab695032",
        "gas": "0x1013c",
        "value": "0x0",
        "input": "0x3400288b0000000000000000000000000000000000000000000000000000000000009d4b0000000000000000000000007e6bc0dc649f5e48842c881e97666c7e21d0a433",
        "nonce": "0x18",
        "chainId": "0xaa36a7"
      },
      "additionalContracts": [],
      "isFixedGasLimit": false
    },
    {
      "hash": "0x47d522cbbb54df578072da95f17fd0f1f7877b63ca5c3542364671d30f9e4d62",
      "transactionType": "CALL",
      "contractName": "BridgeableToken",
      "contractAddress": "0x65791b76d6129b3d299600384c3b210eab695032",
      "function": "setPeer(uint32,bytes32)",
      "arguments": [
        "40231",
        "0x000000000000000000000000098e37a2bfac675cf5a5c21d4f10e391d502d8b6"
      ],
      "transaction": {
        "from": "0x3676b6ed4ae0c9ce3e0034510719fdf5fd585d55",
        "to": "0x65791b76d6129b3d299600384c3b210eab695032",
        "gas": "0x1013c",
        "value": "0x0",
        "input": "0x3400288b0000000000000000000000000000000000000000000000000000000000009d27000000000000000000000000098e37a2bfac675cf5a5c21d4f10e391d502d8b6",
        "nonce": "0x19",
        "chainId": "0xaa36a7"
      },
      "additionalContracts": [],
      "isFixedGasLimit": false
    }
  ],
  "receipts": [
    {
      "status": "0x1",
      "cumulativeGasUsed": "0xabdd87",
      "logs": [
        {
          "address": "0x65791b76d6129b3d299600384c3b210eab695032",
          "topics": [
            "0x238399d427b947898edb290f5ff0f9109849b1c3ba196a42e35f00c50a54b98b"
          ],
          "data": "0x0000000000000000000000000000000000000000000000000000000000009d4b0000000000000000000000007e6bc0dc649f5e48842c881e97666c7e21d0a433",
          "blockHash": "0x208cb1223e4176ca70bf834dd3b4d69c9a456931ceef18d67a2ab70798edd5a1",
          "blockNumber": "0x5e6ec3",
          "transactionHash": "0x8f1bd6447f00f96abf9aa977ee7dd79110b01b0a2eab1e44721739d0c27e736d",
          "transactionIndex": "0x37",
          "logIndex": "0x6a",
          "removed": false
        }
      ],
      "logsBloom": "0x00000000000000000000800000000000000000000000000000000000000000000000000000040000000000000000000000000000000000000800000000000000000000000000000000000000000000000000000000000000000000000000000000000000000000000000000000000000000000000000000000000000000000000000000000000000000000000000000000000000000000000000008000000000000000000000000000000000000000000000000000000000000002000000000000000000000000000000000000000000000000000000000000040000000000000000000000000000000000000000000000000000000000000000000000000000",
      "type": "0x2",
      "transactionHash": "0x8f1bd6447f00f96abf9aa977ee7dd79110b01b0a2eab1e44721739d0c27e736d",
      "transactionIndex": "0x37",
      "blockHash": "0x208cb1223e4176ca70bf834dd3b4d69c9a456931ceef18d67a2ab70798edd5a1",
      "blockNumber": "0x5e6ec3",
      "gasUsed": "0xba3d",
      "effectiveGasPrice": "0x1849e4400",
      "from": "0x3676b6ed4ae0c9ce3e0034510719fdf5fd585d55",
      "to": "0x65791b76d6129b3d299600384c3b210eab695032",
      "contractAddress": null
    },
    {
      "status": "0x1",
      "cumulativeGasUsed": "0xac97c4",
      "logs": [
        {
          "address": "0x65791b76d6129b3d299600384c3b210eab695032",
          "topics": [
            "0x238399d427b947898edb290f5ff0f9109849b1c3ba196a42e35f00c50a54b98b"
          ],
          "data": "0x0000000000000000000000000000000000000000000000000000000000009d27000000000000000000000000098e37a2bfac675cf5a5c21d4f10e391d502d8b6",
          "blockHash": "0x208cb1223e4176ca70bf834dd3b4d69c9a456931ceef18d67a2ab70798edd5a1",
          "blockNumber": "0x5e6ec3",
          "transactionHash": "0x47d522cbbb54df578072da95f17fd0f1f7877b63ca5c3542364671d30f9e4d62",
          "transactionIndex": "0x38",
          "logIndex": "0x6b",
          "removed": false
        }
      ],
      "logsBloom": "0x00000000000000000000800000000000000000000000000000000000000000000000000000040000000000000000000000000000000000000800000000000000000000000000000000000000000000000000000000000000000000000000000000000000000000000000000000000000000000000000000000000000000000000000000000000000000000000000000000000000000000000000008000000000000000000000000000000000000000000000000000000000000002000000000000000000000000000000000000000000000000000000000000040000000000000000000000000000000000000000000000000000000000000000000000000000",
      "type": "0x2",
      "transactionHash": "0x47d522cbbb54df578072da95f17fd0f1f7877b63ca5c3542364671d30f9e4d62",
      "transactionIndex": "0x38",
      "blockHash": "0x208cb1223e4176ca70bf834dd3b4d69c9a456931ceef18d67a2ab70798edd5a1",
      "blockNumber": "0x5e6ec3",
      "gasUsed": "0xba3d",
      "effectiveGasPrice": "0x1849e4400",
      "from": "0x3676b6ed4ae0c9ce3e0034510719fdf5fd585d55",
      "to": "0x65791b76d6129b3d299600384c3b210eab695032",
      "contractAddress": null
    }
  ],
  "libraries": [],
  "pending": [],
  "returns": {},
  "timestamp": 1719381439,
  "chain": 11155111,
  "commit": "512c6e0"
}
