{
  "transactions": [
    {
      "hash": "0xf5a4ffb7e65f55b314edb4f3975ff44c4bb2b8ce52ef01f482a20c51f728ebe6",
      "transactionType": "CALL",
      "contractName": null,
      "contractAddress": "0x1b03d006a47df53b440b9a94af88f38f63583342",
      "function": "setPeer(uint32,bytes32)",
      "arguments": [
        "40267",
        "0x00000000000000000000000027b8907330ca7c130d4c125addc7588520e8208a"
      ],
      "transaction": {
        "from": "0x3676b6ed4ae0c9ce3e0034510719fdf5fd585d55",
        "to": "0x1b03d006a47df53b440b9a94af88f38f63583342",
        "gas": "0x1013c",
        "value": "0x0",
        "input": "0x3400288b0000000000000000000000000000000000000000000000000000000000009d4b00000000000000000000000027b8907330ca7c130d4c125addc7588520e8208a",
        "nonce": "0x13",
        "chainId": "0xaa36a7"
      },
      "additionalContracts": [],
      "isFixedGasLimit": false
    },
    {
      "hash": "0x7109874acf9ecb635fb357386ee07f215978d69f9fd3fa1146adbdf2e8756ef7",
      "transactionType": "CALL",
      "contractName": null,
      "contractAddress": "0x1b03d006a47df53b440b9a94af88f38f63583342",
      "function": "setPeer(uint32,bytes32)",
      "arguments": [
        "40231",
        "0x0000000000000000000000008932ead0662b079e12d0ca5005f7123e0df1b3fd"
      ],
      "transaction": {
        "from": "0x3676b6ed4ae0c9ce3e0034510719fdf5fd585d55",
        "to": "0x1b03d006a47df53b440b9a94af88f38f63583342",
        "gas": "0x1013c",
        "value": "0x0",
        "input": "0x3400288b0000000000000000000000000000000000000000000000000000000000009d270000000000000000000000008932ead0662b079e12d0ca5005f7123e0df1b3fd",
        "nonce": "0x14",
        "chainId": "0xaa36a7"
      },
      "additionalContracts": [],
      "isFixedGasLimit": false
    }
  ],
  "receipts": [
    {
      "status": "0x1",
      "cumulativeGasUsed": "0xed52e5",
      "logs": [
        {
          "address": "0x1b03d006a47df53b440b9a94af88f38f63583342",
          "topics": [
            "0x238399d427b947898edb290f5ff0f9109849b1c3ba196a42e35f00c50a54b98b"
          ],
          "data": "0x0000000000000000000000000000000000000000000000000000000000009d4b00000000000000000000000027b8907330ca7c130d4c125addc7588520e8208a",
          "blockHash": "0x1d8cc0888a5a60c02d38724c613741e5546ce0fdb5b0273f665beb09ac46f9ab",
          "blockNumber": "0x5d282a",
          "transactionHash": "0xf5a4ffb7e65f55b314edb4f3975ff44c4bb2b8ce52ef01f482a20c51f728ebe6",
          "transactionIndex": "0x71",
          "logIndex": "0x108",
          "removed": false
        }
      ],
      "logsBloom": "0x00000000000000000000000001000000000000000000000000000000000000000000000000000000000000000000000000000000000000000800000000000000000000000000000000000000000000000000000000000000000000000000000000000000000000000000000000000000000000000000000000000000000000000000000000000000000000000000000000000000000000000000000000000000000000000000000000000000000000000000000000000000000002010000000000000000000004000000000000000000000000000000000000040000000000000000000000000000000000000000000000000000000000000000000000000000",
      "type": "0x2",
      "transactionHash": "0xf5a4ffb7e65f55b314edb4f3975ff44c4bb2b8ce52ef01f482a20c51f728ebe6",
      "transactionIndex": "0x71",
      "blockHash": "0x1d8cc0888a5a60c02d38724c613741e5546ce0fdb5b0273f665beb09ac46f9ab",
      "blockNumber": "0x5d282a",
      "gasUsed": "0xba3d",
      "effectiveGasPrice": "0x7050f3972",
      "from": "0x3676b6ed4ae0c9ce3e0034510719fdf5fd585d55",
      "to": "0x1b03d006a47df53b440b9a94af88f38f63583342",
      "contractAddress": null
    },
    {
      "status": "0x1",
      "cumulativeGasUsed": "0xee0d22",
      "logs": [
        {
          "address": "0x1b03d006a47df53b440b9a94af88f38f63583342",
          "topics": [
            "0x238399d427b947898edb290f5ff0f9109849b1c3ba196a42e35f00c50a54b98b"
          ],
          "data": "0x0000000000000000000000000000000000000000000000000000000000009d270000000000000000000000008932ead0662b079e12d0ca5005f7123e0df1b3fd",
          "blockHash": "0x1d8cc0888a5a60c02d38724c613741e5546ce0fdb5b0273f665beb09ac46f9ab",
          "blockNumber": "0x5d282a",
          "transactionHash": "0x7109874acf9ecb635fb357386ee07f215978d69f9fd3fa1146adbdf2e8756ef7",
          "transactionIndex": "0x72",
          "logIndex": "0x109",
          "removed": false
        }
      ],
      "logsBloom": "0x00000000000000000000000001000000000000000000000000000000000000000000000000000000000000000000000000000000000000000800000000000000000000000000000000000000000000000000000000000000000000000000000000000000000000000000000000000000000000000000000000000000000000000000000000000000000000000000000000000000000000000000000000000000000000000000000000000000000000000000000000000000000002010000000000000000000004000000000000000000000000000000000000040000000000000000000000000000000000000000000000000000000000000000000000000000",
      "type": "0x2",
      "transactionHash": "0x7109874acf9ecb635fb357386ee07f215978d69f9fd3fa1146adbdf2e8756ef7",
      "transactionIndex": "0x72",
      "blockHash": "0x1d8cc0888a5a60c02d38724c613741e5546ce0fdb5b0273f665beb09ac46f9ab",
      "blockNumber": "0x5d282a",
      "gasUsed": "0xba3d",
      "effectiveGasPrice": "0x7050f3972",
      "from": "0x3676b6ed4ae0c9ce3e0034510719fdf5fd585d55",
      "to": "0x1b03d006a47df53b440b9a94af88f38f63583342",
      "contractAddress": null
    }
  ],
  "libraries": [],
  "pending": [],
  "returns": {},
  "timestamp": 1718355372,
  "chain": 11155111,
  "commit": "4593924"
}
