{
  "transactions": [
    {
      "hash": "0x786ffbccb2e86d2ab9d8d1b364d771bfd3dcb95af5e7c74601ea0012fa369cbb",
      "transactionType": "CALL",
      "contractName": "BridgeableToken",
      "contractAddress": "0x7e6bc0dc649f5e48842c881e97666c7e21d0a433",
      "function": "setPeer(uint32,bytes32)",
      "arguments": [
        "40161",
        "0x00000000000000000000000065791b76d6129b3d299600384c3b210eab695032"
      ],
      "transaction": {
        "from": "0x3676b6ed4ae0c9ce3e0034510719fdf5fd585d55",
        "to": "0x7e6bc0dc649f5e48842c881e97666c7e21d0a433",
        "gas": "0x1104d",
        "value": "0x0",
        "input": "0x3400288b0000000000000000000000000000000000000000000000000000000000009ce100000000000000000000000065791b76d6129b3d299600384c3b210eab695032",
        "nonce": "0x1c",
        "chainId": "0x13882"
      },
      "additionalContracts": [],
      "isFixedGasLimit": false
    },
    {
      "hash": "0x3f9b8a0bae4d2562f98f7663d1b9c3b85deb952d495a6be3ffd5b46e693fd4fd",
      "transactionType": "CALL",
      "contractName": "BridgeableToken",
      "contractAddress": "0x7e6bc0dc649f5e48842c881e97666c7e21d0a433",
      "function": "setPeer(uint32,bytes32)",
      "arguments": [
        "40231",
        "0x000000000000000000000000098e37a2bfac675cf5a5c21d4f10e391d502d8b6"
      ],
      "transaction": {
        "from": "0x3676b6ed4ae0c9ce3e0034510719fdf5fd585d55",
        "to": "0x7e6bc0dc649f5e48842c881e97666c7e21d0a433",
        "gas": "0x1013c",
        "value": "0x0",
        "input": "0x3400288b0000000000000000000000000000000000000000000000000000000000009d27000000000000000000000000098e37a2bfac675cf5a5c21d4f10e391d502d8b6",
        "nonce": "0x1d",
        "chainId": "0x13882"
      },
      "additionalContracts": [],
      "isFixedGasLimit": false
    }
  ],
  "receipts": [
    {
      "status": "0x1",
      "cumulativeGasUsed": "0xba31",
      "logs": [
        {
          "address": "0x7e6bc0dc649f5e48842c881e97666c7e21d0a433",
          "topics": [
            "0x238399d427b947898edb290f5ff0f9109849b1c3ba196a42e35f00c50a54b98b"
          ],
          "data": "0x0000000000000000000000000000000000000000000000000000000000009ce100000000000000000000000065791b76d6129b3d299600384c3b210eab695032",
          "blockHash": "0xed1e2e879c906e1797a0e348e861ec116856c5c913ea6d9653a570ce69a7db99",
          "blockNumber": "0x8546c0",
          "transactionHash": "0x786ffbccb2e86d2ab9d8d1b364d771bfd3dcb95af5e7c74601ea0012fa369cbb",
          "transactionIndex": "0x0",
          "logIndex": "0x0",
          "removed": false
        },
        {
          "address": "0x0000000000000000000000000000000000001010",
          "topics": [
            "0x4dfe1bbbcf077ddc3e01291eea2d5c70c2b422b415d95645b9adcfd678cb1d63",
            "0x0000000000000000000000000000000000000000000000000000000000001010",
            "0x0000000000000000000000003676b6ed4ae0c9ce3e0034510719fdf5fd585d55",
            "0x0000000000000000000000004ad84f7014b7b44f723f284a85b1662337971439"
          ],
          "data": "0x000000000000000000000000000000000000000000000000000becde62f545540000000000000000000000000000000000000000000000000e74aa62c2ee534200000000000000000000000000000000000000000000013d750787b503367d730000000000000000000000000000000000000000000000000e68bd845ff90dee00000000000000000000000000000000000000000000013d75137493662bc2c7",
          "blockHash": "0xed1e2e879c906e1797a0e348e861ec116856c5c913ea6d9653a570ce69a7db99",
          "blockNumber": "0x8546c0",
          "transactionHash": "0x786ffbccb2e86d2ab9d8d1b364d771bfd3dcb95af5e7c74601ea0012fa369cbb",
          "transactionIndex": "0x0",
          "logIndex": "0x1",
          "removed": false
        }
      ],
      "logsBloom": "0x00000000000000000000000000000000000000000000000000000000000000000000000000000000000000000000000000008000000000000800000000400000000004000000000000000000000000800000000200000000000100001000000000000000000000000000000000000000000000000000000080000000000000000000000000000000000000000000000000000000000000000000000000000000200000000000000000000000000000000000000000000000000002000000004000000000000000000001000000000000000000000000000000140000000000000000000000000000001002000000008000000000000000000200000000100000",
      "type": "0x2",
      "transactionHash": "0x786ffbccb2e86d2ab9d8d1b364d771bfd3dcb95af5e7c74601ea0012fa369cbb",
      "transactionIndex": "0x0",
      "blockHash": "0xed1e2e879c906e1797a0e348e861ec116856c5c913ea6d9653a570ce69a7db99",
      "blockNumber": "0x8546c0",
      "gasUsed": "0xba31",
      "effectiveGasPrice": "0x10657a71a3",
      "from": "0x3676b6ed4ae0c9ce3e0034510719fdf5fd585d55",
      "to": "0x7e6bc0dc649f5e48842c881e97666c7e21d0a433",
      "contractAddress": null
    },
    {
      "status": "0x1",
      "cumulativeGasUsed": "0x1746e",
      "logs": [
        {
          "address": "0x7e6bc0dc649f5e48842c881e97666c7e21d0a433",
          "topics": [
            "0x238399d427b947898edb290f5ff0f9109849b1c3ba196a42e35f00c50a54b98b"
          ],
          "data": "0x0000000000000000000000000000000000000000000000000000000000009d27000000000000000000000000098e37a2bfac675cf5a5c21d4f10e391d502d8b6",
          "blockHash": "0xed1e2e879c906e1797a0e348e861ec116856c5c913ea6d9653a570ce69a7db99",
          "blockNumber": "0x8546c0",
          "transactionHash": "0x3f9b8a0bae4d2562f98f7663d1b9c3b85deb952d495a6be3ffd5b46e693fd4fd",
          "transactionIndex": "0x1",
          "logIndex": "0x2",
          "removed": false
        },
        {
          "address": "0x0000000000000000000000000000000000001010",
          "topics": [
            "0x4dfe1bbbcf077ddc3e01291eea2d5c70c2b422b415d95645b9adcfd678cb1d63",
            "0x0000000000000000000000000000000000000000000000000000000000001010",
            "0x0000000000000000000000003676b6ed4ae0c9ce3e0034510719fdf5fd585d55",
            "0x0000000000000000000000004ad84f7014b7b44f723f284a85b1662337971439"
          ],
          "data": "0x000000000000000000000000000000000000000000000000000beda324b298440000000000000000000000000000000000000000000000000e68bd845fee250f00000000000000000000000000000000000000000000013d75137493662bc2c70000000000000000000000000000000000000000000000000e5ccfe13b3b8ccb00000000000000000000000000000000000000000000013d751f62368ade5b0b",
          "blockHash": "0xed1e2e879c906e1797a0e348e861ec116856c5c913ea6d9653a570ce69a7db99",
          "blockNumber": "0x8546c0",
          "transactionHash": "0x3f9b8a0bae4d2562f98f7663d1b9c3b85deb952d495a6be3ffd5b46e693fd4fd",
          "transactionIndex": "0x1",
          "logIndex": "0x3",
          "removed": false
        }
      ],
      "logsBloom": "0x00000000000000000000000000000000000000000000000000000000000000000000000000000000000000000000000000008000000000000800000000400000000004000000000000000000000000800000000200000000000100001000000000000000000000000000000000000000000000000000000080000000000000000000000000000000000000000000000000000000000000000000000000000000200000000000000000000000000000000000000000000000000002000000004000000000000000000001000000000000000000000000000000140000000000000000000000000000001002000000008000000000000000000200000000100000",
      "type": "0x2",
      "transactionHash": "0x3f9b8a0bae4d2562f98f7663d1b9c3b85deb952d495a6be3ffd5b46e693fd4fd",
      "transactionIndex": "0x1",
      "blockHash": "0xed1e2e879c906e1797a0e348e861ec116856c5c913ea6d9653a570ce69a7db99",
      "blockNumber": "0x8546c0",
      "gasUsed": "0xba3d",
      "effectiveGasPrice": "0x10657a71a3",
      "from": "0x3676b6ed4ae0c9ce3e0034510719fdf5fd585d55",
      "to": "0x7e6bc0dc649f5e48842c881e97666c7e21d0a433",
      "contractAddress": null
    }
  ],
  "libraries": [],
  "pending": [],
  "returns": {},
  "timestamp": 1719381513,
  "chain": 80002,
  "commit": "512c6e0"
}
