{
  "transactions": [
    {
      "hash": "0xcb76a7b0c31ea30f566588ca4e86980a61e076d6510c2449577f15bc0d592014",
      "transactionType": "CALL",
      "contractName": null,
      "contractAddress": "0x27b8907330ca7c130d4c125addc7588520e8208a",
      "function": "setPeer(uint32,bytes32)",
      "arguments": [
        "40161",
        "0x0000000000000000000000001b03d006a47df53b440b9a94af88f38f63583342"
      ],
      "transaction": {
        "from": "0x3676b6ed4ae0c9ce3e0034510719fdf5fd585d55",
        "to": "0x27b8907330ca7c130d4c125addc7588520e8208a",
        "gas": "0x1013c",
        "value": "0x0",
        "input": "0x3400288b0000000000000000000000000000000000000000000000000000000000009ce10000000000000000000000001b03d006a47df53b440b9a94af88f38f63583342",
        "nonce": "0x18",
        "chainId": "0x13882"
      },
      "additionalContracts": [],
      "isFixedGasLimit": false
    },
    {
      "hash": "0xa1dccc7f438eb9d892b8da63d25dfd56b559a94ca88d173cbc32f600edd31ef9",
      "transactionType": "CALL",
      "contractName": null,
      "contractAddress": "0x27b8907330ca7c130d4c125addc7588520e8208a",
      "function": "setPeer(uint32,bytes32)",
      "arguments": [
        "40231",
        "0x0000000000000000000000008932ead0662b079e12d0ca5005f7123e0df1b3fd"
      ],
      "transaction": {
        "from": "0x3676b6ed4ae0c9ce3e0034510719fdf5fd585d55",
        "to": "0x27b8907330ca7c130d4c125addc7588520e8208a",
        "gas": "0x1013c",
        "value": "0x0",
        "input": "0x3400288b0000000000000000000000000000000000000000000000000000000000009d270000000000000000000000008932ead0662b079e12d0ca5005f7123e0df1b3fd",
        "nonce": "0x19",
        "chainId": "0x13882"
      },
      "additionalContracts": [],
      "isFixedGasLimit": false
    }
  ],
  "receipts": [
    {
      "status": "0x1",
      "cumulativeGasUsed": "0x39145",
      "logs": [
        {
          "address": "0x27b8907330ca7c130d4c125addc7588520e8208a",
          "topics": [
            "0x238399d427b947898edb290f5ff0f9109849b1c3ba196a42e35f00c50a54b98b"
          ],
          "data": "0x0000000000000000000000000000000000000000000000000000000000009ce10000000000000000000000001b03d006a47df53b440b9a94af88f38f63583342",
          "blockHash": "0xd1d2a2676a374b95c570e4fdee233989588cd709a6ad2140268fa1a875ae4a75",
          "blockNumber": "0x7e10a7",
          "transactionHash": "0xcb76a7b0c31ea30f566588ca4e86980a61e076d6510c2449577f15bc0d592014",
          "transactionIndex": "0x2",
          "logIndex": "0x8",
          "removed": false
        },
        {
          "address": "0x0000000000000000000000000000000000001010",
          "topics": [
            "0x4dfe1bbbcf077ddc3e01291eea2d5c70c2b422b415d95645b9adcfd678cb1d63",
            "0x0000000000000000000000000000000000000000000000000000000000001010",
            "0x0000000000000000000000003676b6ed4ae0c9ce3e0034510719fdf5fd585d55",
            "0x000000000000000000000000915a2284d28bd93de7d6f31173b981204bb666e6"
          ],
          "data": "0x000000000000000000000000000000000000000000000000000514dbff77fc000000000000000000000000000000000000000000000000000d3d3fc0fbee8c400000000000000000000000000000000000000000000001c8129716e55071daef0000000000000000000000000000000000000000000000000d382ae4fc7690400000000000000000000000000000000000000000000001c8129c2bc14fe9d6ef",
          "blockHash": "0xd1d2a2676a374b95c570e4fdee233989588cd709a6ad2140268fa1a875ae4a75",
          "blockNumber": "0x7e10a7",
          "transactionHash": "0xcb76a7b0c31ea30f566588ca4e86980a61e076d6510c2449577f15bc0d592014",
          "transactionIndex": "0x2",
          "logIndex": "0x9",
          "removed": false
        }
      ],
      "logsBloom": "0x00000000000000000010000000000000000000000000000000000000000000000000000000000000000000000000000000008000000000000800000000000000000000000000000000000000000000800000000200000000000100001000000000000000000000000000000100000000000000000000000080000000000000000000000000000000000000000000000000000000000000000000000000008000200000000000000000000000000000000000000000000000000002000000004000000000010000000001000000000000000002000000000000140000000000000000000000000000000002000000000000000000400000000000000000100000",
      "type": "0x2",
      "transactionHash": "0xcb76a7b0c31ea30f566588ca4e86980a61e076d6510c2449577f15bc0d592014",
      "transactionIndex": "0x2",
      "blockHash": "0xd1d2a2676a374b95c570e4fdee233989588cd709a6ad2140268fa1a875ae4a75",
      "blockNumber": "0x7e10a7",
      "gasUsed": "0xba3d",
      "effectiveGasPrice": "0x6fc23ac0f",
      "from": "0x3676b6ed4ae0c9ce3e0034510719fdf5fd585d55",
      "to": "0x27b8907330ca7c130d4c125addc7588520e8208a",
      "contractAddress": null
    },
    {
      "status": "0x1",
      "cumulativeGasUsed": "0x44b82",
      "logs": [
        {
          "address": "0x27b8907330ca7c130d4c125addc7588520e8208a",
          "topics": [
            "0x238399d427b947898edb290f5ff0f9109849b1c3ba196a42e35f00c50a54b98b"
          ],
          "data": "0x0000000000000000000000000000000000000000000000000000000000009d270000000000000000000000008932ead0662b079e12d0ca5005f7123e0df1b3fd",
          "blockHash": "0xd1d2a2676a374b95c570e4fdee233989588cd709a6ad2140268fa1a875ae4a75",
          "blockNumber": "0x7e10a7",
          "transactionHash": "0xa1dccc7f438eb9d892b8da63d25dfd56b559a94ca88d173cbc32f600edd31ef9",
          "transactionIndex": "0x3",
          "logIndex": "0xa",
          "removed": false
        },
        {
          "address": "0x0000000000000000000000000000000000001010",
          "topics": [
            "0x4dfe1bbbcf077ddc3e01291eea2d5c70c2b422b415d95645b9adcfd678cb1d63",
            "0x0000000000000000000000000000000000000000000000000000000000001010",
            "0x0000000000000000000000003676b6ed4ae0c9ce3e0034510719fdf5fd585d55",
            "0x000000000000000000000000915a2284d28bd93de7d6f31173b981204bb666e6"
          ],
          "data": "0x000000000000000000000000000000000000000000000000000514dbff77fc000000000000000000000000000000000000000000000000000d382ae4fc6ba6ad0000000000000000000000000000000000000000000001c8129c2bc14fe9d6ef0000000000000000000000000000000000000000000000000d331608fcf3aaad0000000000000000000000000000000000000000000001c812a1409d4f61d2ef",
          "blockHash": "0xd1d2a2676a374b95c570e4fdee233989588cd709a6ad2140268fa1a875ae4a75",
          "blockNumber": "0x7e10a7",
          "transactionHash": "0xa1dccc7f438eb9d892b8da63d25dfd56b559a94ca88d173cbc32f600edd31ef9",
          "transactionIndex": "0x3",
          "logIndex": "0xb",
          "removed": false
        }
      ],
      "logsBloom": "0x00000000000000000010000000000000000000000000000000000000000000000000000000000000000000000000000000008000000000000800000000000000000000000000000000000000000000800000000200000000000100001000000000000000000000000000000100000000000000000000000080000000000000000000000000000000000000000000000000000000000000000000000000008000200000000000000000000000000000000000000000000000000002000000004000000000010000000001000000000000000002000000000000140000000000000000000000000000000002000000000000000000400000000000000000100000",
      "type": "0x2",
      "transactionHash": "0xa1dccc7f438eb9d892b8da63d25dfd56b559a94ca88d173cbc32f600edd31ef9",
      "transactionIndex": "0x3",
      "blockHash": "0xd1d2a2676a374b95c570e4fdee233989588cd709a6ad2140268fa1a875ae4a75",
      "blockNumber": "0x7e10a7",
      "gasUsed": "0xba3d",
      "effectiveGasPrice": "0x6fc23ac0f",
      "from": "0x3676b6ed4ae0c9ce3e0034510719fdf5fd585d55",
      "to": "0x27b8907330ca7c130d4c125addc7588520e8208a",
      "contractAddress": null
    }
  ],
  "libraries": [],
  "pending": [],
  "returns": {},
  "timestamp": 1718355455,
  "chain": 80002,
  "commit": "4593924"
}
