{
  "transactions": [
    {
      "hash": "0x2d95e65df21130b07965d5e271b7561ba158b60d7eaec3a43458045871ffe751",
      "transactionType": "CALL",
      "contractName": "BridgeableToken",
      "contractAddress": "0xfcba2b3fa587c46a0f3158b43cc020c5026b53a8",
      "function": "setPeer(uint32,bytes32)",
      "arguments": [
        "40231",
        "0x00000000000000000000000086afa59ff739b5be56ce8a81a424af17b29668e9"
      ],
      "transaction": {
        "from": "0x3676b6ed4ae0c9ce3e0034510719fdf5fd585d55",
        "to": "0xfcba2b3fa587c46a0f3158b43cc020c5026b53a8",
        "gas": "0x1013c",
        "value": "0x0",
        "input": "0x3400288b0000000000000000000000000000000000000000000000000000000000009d2700000000000000000000000086afa59ff739b5be56ce8a81a424af17b29668e9",
        "nonce": "0x20",
        "chainId": "0x13882"
      },
      "additionalContracts": [],
      "isFixedGasLimit": false
    }
  ],
  "receipts": [
    {
      "status": "0x1",
      "cumulativeGasUsed": "0x2fb73",
      "logs": [
        {
          "address": "0xfcba2b3fa587c46a0f3158b43cc020c5026b53a8",
          "topics": [
            "0x238399d427b947898edb290f5ff0f9109849b1c3ba196a42e35f00c50a54b98b"
          ],
          "data": "0x0000000000000000000000000000000000000000000000000000000000009d2700000000000000000000000086afa59ff739b5be56ce8a81a424af17b29668e9",
          "blockHash": "0x79c6023b40e187fcc86ef8b500222be8e4566cdec2131eed7f2c0fc5ad46b12f",
          "blockNumber": "0xb362c3",
          "transactionHash": "0x2d95e65df21130b07965d5e271b7561ba158b60d7eaec3a43458045871ffe751",
          "transactionIndex": "0x2",
          "logIndex": "0x7",
          "removed": false
        },
        {
          "address": "0x0000000000000000000000000000000000001010",
          "topics": [
            "0x4dfe1bbbcf077ddc3e01291eea2d5c70c2b422b415d95645b9adcfd678cb1d63",
            "0x0000000000000000000000000000000000000000000000000000000000001010",
            "0x0000000000000000000000003676b6ed4ae0c9ce3e0034510719fdf5fd585d55",
            "0x0000000000000000000000004ad84f7014b7b44f723f284a85b1662337971439"
          ],
          "data": "0x00000000000000000000000000000000000000000000000000064464a9f8006d0000000000000000000000000000000000000000000000000b8557217e66deb400000000000000000000000000000000000000000000027d6be7400d7c977e660000000000000000000000000000000000000000000000000b7f12bcd46ede4700000000000000000000000000000000000000000000027d6bed8472268f7ed3",
          "blockHash": "0x79c6023b40e187fcc86ef8b500222be8e4566cdec2131eed7f2c0fc5ad46b12f",
          "blockNumber": "0xb362c3",
          "transactionHash": "0x2d95e65df21130b07965d5e271b7561ba158b60d7eaec3a43458045871ffe751",
          "transactionIndex": "0x2",
          "logIndex": "0x8",
          "removed": false
        }
      ],
      "logsBloom": "0x00000000000000000000000000000000000000000000000000080000000000000000000000000000000000000000000000008000000000000800000000400000000000000000000000000000000000800000000200000000000100001000000000000000000000000000000000000000000000000000000080000000000000000000000000000000000000000000000000000000000000000000000000002000200000000000000000000000000000000000000000000000000002000000004000000000000000000001000000000000000000000000000000140000000000000000000000000000000002001000008000000000000000000000000000100000",
      "type": "0x2",
      "transactionHash": "0x2d95e65df21130b07965d5e271b7561ba158b60d7eaec3a43458045871ffe751",
      "transactionIndex": "0x2",
      "blockHash": "0x79c6023b40e187fcc86ef8b500222be8e4566cdec2131eed7f2c0fc5ad46b12f",
      "blockNumber": "0xb362c3",
      "gasUsed": "0xba3d",
      "effectiveGasPrice": "0x89d5f3200",
      "from": "0x3676b6ed4ae0c9ce3e0034510719fdf5fd585d55",
      "to": "0xfcba2b3fa587c46a0f3158b43cc020c5026b53a8",
      "contractAddress": null
    }
  ],
  "libraries": [],
  "pending": [],
  "returns": {},
  "timestamp": 1725878535,
  "chain": 80002,
  "commit": "3337cad"
}
