{
  "transactions": [
    {
      "hash": "0xbc424b226976020c83d76e4c5ef118f36c7a28ed858277ff266adca59006e90f",
      "transactionType": "CALL",
      "contractName": null,
      "contractAddress": "0x8932ead0662b079e12d0ca5005f7123e0df1b3fd",
      "function": "setPeer(uint32,bytes32)",
      "arguments": [
        "40161",
        "0x0000000000000000000000001b03d006a47df53b440b9a94af88f38f63583342"
      ],
      "transaction": {
        "from": "0x3676b6ed4ae0c9ce3e0034510719fdf5fd585d55",
        "to": "0x8932ead0662b079e12d0ca5005f7123e0df1b3fd",
        "gas": "0x8d0e8",
        "value": "0x0",
        "input": "0x3400288b0000000000000000000000000000000000000000000000000000000000009ce10000000000000000000000001b03d006a47df53b440b9a94af88f38f63583342",
        "nonce": "0x20",
        "chainId": "0x66eee"
      },
      "additionalContracts": [],
      "isFixedGasLimit": false
    },
    {
      "hash": "0x404d00bec1e494c46d4ec755e24dc38ce4e477a528c5fc8df3fc138c615569e2",
      "transactionType": "CALL",
      "contractName": null,
      "contractAddress": "0x8932ead0662b079e12d0ca5005f7123e0df1b3fd",
      "function": "setPeer(uint32,bytes32)",
      "arguments": [
        "40267",
        "0x00000000000000000000000027b8907330ca7c130d4c125addc7588520e8208a"
      ],
      "transaction": {
        "from": "0x3676b6ed4ae0c9ce3e0034510719fdf5fd585d55",
        "to": "0x8932ead0662b079e12d0ca5005f7123e0df1b3fd",
        "gas": "0x8d0e8",
        "value": "0x0",
        "input": "0x3400288b0000000000000000000000000000000000000000000000000000000000009d4b00000000000000000000000027b8907330ca7c130d4c125addc7588520e8208a",
        "nonce": "0x21",
        "chainId": "0x66eee"
      },
      "additionalContracts": [],
      "isFixedGasLimit": false
    }
  ],
  "receipts": [
    {
      "status": "0x1",
      "cumulativeGasUsed": "0x10a758",
      "logs": [
        {
          "address": "0x8932ead0662b079e12d0ca5005f7123e0df1b3fd",
          "topics": [
            "0x238399d427b947898edb290f5ff0f9109849b1c3ba196a42e35f00c50a54b98b"
          ],
          "data": "0x0000000000000000000000000000000000000000000000000000000000009ce10000000000000000000000001b03d006a47df53b440b9a94af88f38f63583342",
          "blockHash": "0x3c19e28f33e71cca5365befcd46580d684c3d7cd9f22f77d04d75b987be437c5",
          "blockNumber": "0x3407446",
          "transactionHash": "0xbc424b226976020c83d76e4c5ef118f36c7a28ed858277ff266adca59006e90f",
          "transactionIndex": "0x2",
          "logIndex": "0x6",
          "removed": false
        }
      ],
      "logsBloom": "0x00000000000000000000000000000000000000000000000000000000000000000000000000000000000000000000000000000000000000000800000000000000000000000000000000000000000000000000000000000000000000040000000000000000000000000000000000000000000020000000000000000000000000000000000000000000000000000000000000000000000000000000000000000000000000000000000000000000000000000000000000000000000002000000000000000000000000800000000000000000000000000000000000040000000000000000000000000000000000000000000000000000000000000000000000000000",
      "type": "0x2",
      "transactionHash": "0xbc424b226976020c83d76e4c5ef118f36c7a28ed858277ff266adca59006e90f",
      "transactionIndex": "0x2",
      "blockHash": "0x3c19e28f33e71cca5365befcd46580d684c3d7cd9f22f77d04d75b987be437c5",
      "blockNumber": "0x3407446",
      "gasUsed": "0x4ca2f",
      "effectiveGasPrice": "0xb072e60",
      "from": "0x3676b6ed4ae0c9ce3e0034510719fdf5fd585d55",
      "to": "0x8932ead0662b079e12d0ca5005f7123e0df1b3fd",
      "contractAddress": null,
      "gasUsedForL1": "0x40ff2",
      "l1BlockNumber": "0x5d2834"
    },
    {
      "status": "0x1",
      "cumulativeGasUsed": "0x4c728",
      "logs": [
        {
          "address": "0x8932ead0662b079e12d0ca5005f7123e0df1b3fd",
          "topics": [
            "0x238399d427b947898edb290f5ff0f9109849b1c3ba196a42e35f00c50a54b98b"
          ],
          "data": "0x0000000000000000000000000000000000000000000000000000000000009d4b00000000000000000000000027b8907330ca7c130d4c125addc7588520e8208a",
          "blockHash": "0x98a15d91b31a9ba6c3e2300d0fe3c98ba8920579c69fa016a0eaf6fe75fc2abf",
          "blockNumber": "0x340744a",
          "transactionHash": "0x404d00bec1e494c46d4ec755e24dc38ce4e477a528c5fc8df3fc138c615569e2",
          "transactionIndex": "0x1",
          "logIndex": "0x0",
          "removed": false
        }
      ],
      "logsBloom": "0x00000000000000000000000000000000000000000000000000000000000000000000000000000000000000000000000000000000000000000800000000000000000000000000000000000000000000000000000000000000000000040000000000000000000000000000000000000000000020000000000000000000000000000000000000000000000000000000000000000000000000000000000000000000000000000000000000000000000000000000000000000000000002000000000000000000000000800000000000000000000000000000000000040000000000000000000000000000000000000000000000000000000000000000000000000000",
      "type": "0x2",
      "transactionHash": "0x404d00bec1e494c46d4ec755e24dc38ce4e477a528c5fc8df3fc138c615569e2",
      "transactionIndex": "0x1",
      "blockHash": "0x98a15d91b31a9ba6c3e2300d0fe3c98ba8920579c69fa016a0eaf6fe75fc2abf",
      "blockNumber": "0x340744a",
      "gasUsed": "0x4c728",
      "effectiveGasPrice": "0xb0f6bc0",
      "from": "0x3676b6ed4ae0c9ce3e0034510719fdf5fd585d55",
      "to": "0x8932ead0662b079e12d0ca5005f7123e0df1b3fd",
      "contractAddress": null,
      "gasUsedForL1": "0x40ceb",
      "l1BlockNumber": "0x5d2834"
    }
  ],
  "libraries": [],
  "pending": [],
  "returns": {},
  "timestamp": 1718355512,
  "chain": 421614,
  "commit": "4593924"
}
